:100000000C94F7000C9426010C9426010C94260104
:100010000C9426010C9426010C9426010C942601C4
:100020000C9426010C9426010C9426010C942601B4
:100030000C9426010C9426010C9426010C942601A4
:100040000C9426010C9426010C9426010C94260194
:100050000C9426010C9426010C9426010C94140592
:100060000C9426010C94A0070C9474080C9426019F
:100070000C9426010C9426010C9426010C94260164
:100080000C9426010C9426010C9426010C94260154
:100090000C94CD070C94B3080C9426010C94260103
:1000A0000C9426010C9426010C9426010C94260134
:1000B0000C9426010C9426010C9426010C94EA045D
:1000C0000C9426010C9426010C9426010C94FA073A
:1000D0000C94F2080C9426010C9427080C94310916
:1000E0000C9426010000090A02080B0C0D070603F8
:1000F00004010000000000000000000000000000FB
:1001000000000000000000000000000000000000EF
:1001100011100F00000000000000000000000000AF
:100120000000000000000000000001021020200874
:100130000810204010204080020102010804020142
:1001400001020408102040808040201008040201B1
:10015000800402018040201008040201080402010A
:100160000102040810204080010204081020408091
:1001700005050505070508080808020202020A0A23
:100180000808040404040101010101010101030341
:10019000030303030303040707070C0C0C0C0C0CEC
:1001A0000C0C0202020206060606060606060B0BE9
:1001B0000B0B0B0B0B0B00002200250028002B0063
:1001C0002E003100340002010000050108010B017E
:1001D00000002100240027002A002D0030003300F9
:1001E00001010000040107010A017C01F209112448
:1001F0001FBECFEFD1E2DEBFCDBF12E0A0E0B2E084
:10020000EEE2FBE100E00BBF02C007900D92A435C7
:10021000B107D9F717E0A4E5B2E001C01D92AE3AEC
:10022000B107E1F711E0CEEED1E000E006C0229781
:100230000109FE010BBF0E94E80BCA3ED10780E016
:100240000807A9F70E94100B0C94950D0C94000060
:10025000CF93C82F682F85E695E00E9450078C2F1A
:1002600090E0CF91089560E070E088E291E00C9416
:10027000250D0E948A0B40E052EC61E070E085E6BB
:1002800095E00E94700985E695E00E94F0098823B8
:10029000D1F366E072E085E695E00E94760B6CE0B3
:1002A00072E085E695E00E94570B0E94330161E001
:1002B0008CE592E00E94960160E085E592E00E9464
:1002C000960163E373E38CE592E00E94C7016FEF50
:1002D0007FEF85E592E00C94C701609154026F5F57
:1002E000609354028CE592E00E94A50168EC70E0F6
:1002F00080E090E00C94880583E692E00E9466041A
:1003000040E065E38CE592E00E940C0441E065E387
:1003100085E592E00C940C04962F80E09C01242B40
:10032000C9010895872F0895862F0895611103C08C
:100330004FEF5FEF02C040E050E0DC01ED91FC9137
:1003400004A0F5A1E02D60E00994462FDC01ED91B9
:10035000FC9106A0F7A1E02D62E10994462FDC0193
:10036000ED91FC9106A0F7A1E02D62E10994DC017A
:10037000ED91FC9102A0F3A1E02D62E10994DC0172
:10038000ED91FC9102A0F3A1E02D63E10994AB0192
:10039000DC01ED91FC9104A0F5A1E02D62E109944E
:1003A000DC01ED91FC9100A0F1A1E02D62E1099446
:1003B000462FDC01ED91FC9106A0F7A1E02D60E055
:1003C0000994462FDC01ED91FC9106A0F7A1E02DE8
:1003D00061E00994CF93C62FDC01ED91FC9100A060
:1003E000F1A1E02D62E1099521E030E002C0220F89
:1003F000331FCA95E2F728233923C901CF91089505
:10040000FF920F931F93CF93DF93EC01F62EA881F9
:10041000B98194960D911C9195979096ED91FC91D0
:10042000919760E041110BC0099541E050E002C096
:10043000440F551FFA94E2F7482B592B0CC009952D
:1004400041E050E002C0440F551FFA94E2F7409596
:1004500050954823592360E0CE01F801DF91CF91F8
:100460001F910F91FF900994FF920F931F93CF93C9
:10047000DF93EC01F62EA881B98196960D911C911F
:1004800097979296ED91FC91939760E0442351F0F9
:10049000099541E050E00F2C01C0440F0A94EAF79F
:1004A000482B09C0099541E050E001C0440FFA947F
:1004B000EAF74095482360E0CE01F801DF91CF9143
:1004C0001F910F91FF900994FF920F931F93CF9369
:1004D000DF93EC01F62EA881B98196960D911C91BF
:1004E00097979296ED91FC91939762E1442351F096
:1004F000099541E050E00F2C01C0440F0A94EAF73F
:10050000482B09C0099541E050E001C0440FFA941E
:10051000EAF74095482362E1CE01F801DF91CF91DF
:100520001F910F91FF900994FF920F931F93CF9308
:10053000DF93EC01F62EA881B98196960D911C915E
:1005400097979296ED91FC91939763E1442351F034
:10055000099541E050E00F2C01C0440F0A94EAF7DE
:10056000482B09C0099541E050E001C0440FFA94BE
:10057000EAF74095482363E1CE01F801DF91CF917E
:100580001F910F91FF900994FF920F931F93CF93A8
:10059000DF93EC01F62EA881B98196960D911C91FE
:1005A00097979296ED91FC91939761E0442351F0D7
:1005B000099541E050E00F2C01C0440F0A94EAF77E
:1005C000482B09C0099541E050E001C0440FFA945E
:1005D000EAF74095482361E0CE01F801DF91CF9121
:1005E0001F910F91FF900994FF920F931F93CF9348
:1005F000DF93EC01F62EA881B98194960D911C91A0
:1006000095979096ED91FC91919762E1442359F072
:10061000099541E050E002C0440F551FFA94E2F7FB
:10062000482B592B0CC0099541E050E002C0440F03
:10063000551FFA94E2F7409550954823592362E1FB
:10064000CE01F801DF91CF911F910F91FF90099496
:100650008EBD0DB407FEFDCF8EB50895EF92FF92CB
:100660001F93CF93DF931F92CDB7DEB77C01162F78
:1006700060E0FC01868149830E94B406F701858110
:100680000E942803812F0E9428034981842F0E9401
:10069000280361E0F70186810F90DF91CF911F91D0
:1006A000FF90EF900C94B406FF920F931F93CF939B
:1006B000DF93EC01F62E8A0160E08E810E94B40681
:1006C0008D810E9428038F2D0E942803E881F981E3
:1006D00004A4F5A5E02DB801CE0109950E942803D8
:1006E000E881F98102A4F3A5E02DB801CE010995B6
:1006F0000E94280361E08E81DF91CF911F910F91BD
:10070000FF900C94B4061F93CF93DF93EC01162F48
:1007100060E08E810E94B4068C810E942803812FA4
:100720000E94280380E00E942803182F61E08E8138
:100730000E94B406812FDF91CF911F910895EF920F
:10074000FF921F93CF93DF931F92CDB7DEB77C014B
:10075000162F60E0DC0116968C910E94B406F7011A
:1007600084810E942803812F0E94280380E00E9438
:100770002803482F80E049830E942803182F61E056
:10078000D70116968C910E94B406D701ED91FC9189
:1007900000A4F1A5E02D4981612FC7010F90DF91E1
:1007A000CF911F91FF90EF9009941F93CF93DF9308
:1007B000EC01162F61E0812F0E947C0661E0812F01
:1007C0000E94B4061E83DF91CF911F9108950F936D
:1007D0001F93CF93DF93EC016B8370E0660F771F5D
:1007E000CB0181648C8360646D83A881B981949608
:1007F0000D911C9195979096ED91FC9191976AE0DF
:10080000CE010995AC0140626AE0CE01F801DF91AA
:10081000CF911F910F9109940F931F93CF93DF9363
:10082000EC01162F042F25E132E0398328830E9442
:100830008A0B612FCE010E94D50381E00E94A90B93
:1008400060E0812F0E94B40680E40E9428038AE0C1
:100850000E94280388E00E94280361E0812F0E9403
:10086000B40660E0812F0E94B4068EE40E94280343
:100870008AE00E94280388E00E94280361E0812F1B
:100880000E94B40667E0CE010E94E7036AE0CE0151
:100890000E949F03AC0148606AE0CE010E945403AD
:1008A00060E0CE010E94E7036AE0CE010E949F0350
:1008B000AC0148606AE0CE010E945403602FCE0173
:1008C000DF91CF911F910F910C94E703CF93DF93AA
:1008D000EC0181E090E00E941D0B9093FC0480935A
:1008E000FB04198218821A821B82DF91CF9108952E
:1008F000EF92FF920F931F93CF93DF93EC018091C0
:10090000FD049091FE0401969093FE048093FD04F3
:100910008A81811104C08B8181112FC054C07E0156
:1009200000E010E024C0D70114962D913C9115975A
:1009300021153105B9F0FE01E00FF11FE453FF4F1F
:1009400060818091FD049091FE0470E00E94B20BE2
:10095000892B41F4D901ED91FC910190F081E02DBA
:10096000C90109950F5F1F4FB2E0EB0EF11C8A81A0
:1009700090E008171907BCF2CECF7E0100E010E02E
:100980001DC0F701E05DFE4F0190F081E02D309732
:1009900081F0DE01A00FB11FA059BE4F6C91809174
:1009A000FD049091FE0470E00E94B20B892B09F4C3
:1009B00009950F5F1F4FE2E0EE0EF11C8B8190E076
:1009C00008171907F4F2DF91CF911F910F91FF9053
:1009D000EF9008951F920F920FB60F9211240BB64D
:1009E0000F922F933F934F935F936F937F938F93C8
:1009F0009F93AF93BF93EF93FF9383E692E00E94A0
:100A00007804FF91EF91BF91AF919F918F917F916A
:100A10006F915F914F913F912F910F900BBE0F906F
:100A20000FBE0F901F9018951F920F920FB60F9246
:100A300011242F933F938F939F93AF93BF938091F4
:100A4000FF0490910005A0910105B091020530913D
:100A50000705232F2D5F2D3720F40196A11DB11D11
:100A600005C0232F2A570296A11DB11D209307050B
:100A70008093FF0490930005A0930105B0930205B5
:100A80008091030590910405A0910505B09106059C
:100A90000196A11DB11D8093030590930405A093B9
:100AA0000505B0930605BF91AF919F918F913F913E
:100AB0002F910F900FBE0F901F9018950F931F93BB
:100AC0009FB7F89400910305109104052091050546
:100AD0003091060586B5A89B06C08F3F21F00F5FB9
:100AE0001F4F2F4F3F4F9FBF322F212F102F002717
:100AF000080F111D211D311D42E0000F111F221F83
:100B0000331F4A95D1F7B801C9011F910F9108957C
:100B1000CF92DF92EF92FF92CF93DF936B017C0134
:100B20000E945E05EB010EC00E945E056C1B7D0BF2
:100B3000683E734038F081E0C81AD108E108F10836
:100B4000C851DC4FC114D104E104F10469F7DF910D
:100B5000CF91FF90EF90DF90CF900895789484B577
:100B6000826084BD84B5816084BD85B5826085BDA9
:100B700085B5816085BDEEE6F0E08081816080838F
:100B8000E1E8F0E010828081826080838081816072
:100B90008083E0E8F0E0808181608083E1EBF0E039
:100BA000808184608083E0EBF0E0808181608083DD
:100BB000E1E9F0E0808182608083808181608083D0
:100BC000E0E9F0E0808181608083E1EAF0E080810B
:100BD00082608083808181608083E0EAF0E08081B0
:100BE00081608083E1E2F1E08081826080838081A6
:100BF00081608083E0E2F1E0808181608083EAE7C8
:100C0000F0E0808184608083808182608083808145
:100C1000816080838081806880831092C100089504
:100C2000893009F443C088F4843029F138F48230E3
:100C300059F1E8F4813009F05EC023C0873061F1DA
:100C400088F5863009F057C023C08D3009F440C0C4
:100C500020F48B30A9F1C0F52DC0803109F442C0D9
:100C6000813109F443C08F3009F045C037C080910D
:100C700080008F7703C0809180008F7D80938000FB
:100C8000089584B58F7702C084B58F7D84BD0895A3
:100C90008091B0008F7703C08091B0008F7D8093EA
:100CA000B0000895809190008F7707C080919000E8
:100CB0008F7D03C080919000877F8093900008957E
:100CC0008091A0008F7707C08091A0008F7D03C026
:100CD0008091A000877F8093A000089580912001DB
:100CE0008F7707C0809120018F7D03C08091200104
:100CF000877F809320010895CF93DF9390E0FC01DC
:100D0000E65DFE4F4491FC01E059FE4F849188233B
:100D100041F190E0880F991FFC01E053FE4F2591AF
:100D20003491D9018A549E4FFC0185919491C82F2A
:100D3000D92F9FB7F8948C91611106C040958423F8
:100D40008C938881842308C0623041F4242F20953D
:100D500082238C938881842B888302C0842B8C937C
:100D60009FBFDF91CF9108950F931F93CF93DF9390
:100D70001F92CDB7DEB7282F30E0F901EC51FF4FBD
:100D80008491F901E65DFE4F1491F901E059FE4F9F
:100D900004910023D1F0882321F069830E9410067A
:100DA0006981E02FF0E0EE0FFF1FEA54FE4F8591BE
:100DB0009491DC019FB7F8948C91611103C0109558
:100DC000812301C0812B8C939FBF0F90DF91CF9126
:100DD0001F910F910895FC0184859585FC01E05CCD
:100DE000FF4F20813181FC01EE5BFF4F80819181BB
:100DF000281B390B2F733327C9010895FC01848503
:100E00009585FC01E05CFF4F40815181FC01EE5B68
:100E1000FF4F208131814217530741F00190F0814B
:100E2000E02DE80FF91F208130E002C02FEF3FEFE7
:100E3000C9010895FC0184859585FC01E05CFF4FA4
:100E400040815181FC01EE5BFF4F208131814217CF
:100E5000530781F0A081B181A80FB91F8C91208127
:100E600031812F5F3F4F2F73332731832083282F0A
:100E700030E002C02FEF3FEFC9010895FC018685E5
:100E80009785FC01E05CFF4FDC01AE5BBF4F40810A
:100E900051812D913C91119742175307C1F7089545
:100EA000CF93DF93FC0186859785DC01A05CBF4F63
:100EB0002D913C9111972F5F3F4F2F733327EC01FA
:100EC000CE5BDF4F4881598124173507D9F30D9048
:100ED000BC91A02DA80FB91F6C93A685B785A05C07
:100EE000BF4F11963C932E93A689B7892C9181E030
:100EF00090E0058C02C0880F991F0A94E2F7282B16
:100F00002C9381E090E0DF91CF910895FB01E05CAC
:100F1000FF4F208131812F5F3F4F2F733327DB013C
:100F2000AE5BBF4F4D915C912417350739F0A0811E
:100F3000B181A60FB71F8C93318320830895089544
:100F40001F920F920FB60F9211240BB60F922F9390
:100F50003F934F935F936F937F938F939F93AF9341
:100F6000BF93EF93FF938091C60060E677E00E9405
:100F70008607FF91EF91BF91AF919F918F917F91E4
:100F80006F915F914F913F912F910F900BBE0F90FA
:100F90000FBE0F901F90189508951F920F920FB6D5
:100FA0000F9211240BB60F922F933F934F935F93A1
:100FB0006F937F938F939F93AF93BF93EF93FF9321
:100FC0008091CE0068ED76E00E948607FF91EF9158
:100FD000BF91AF919F918F917F916F915F914F9151
:100FE0003F912F910F900BBE0F900FBE0F901F904F
:100FF000189508951F920F920FB60F9211240BB6F9
:101000000F922F933F934F935F936F937F938F93A1
:101010009F93AF93BF93EF93FF938091D60060E5CA
:1010200076E00E948607FF91EF91BF91AF919F916B
:101030008F917F916F915F914F913F912F910F9081
:101040000BBE0F900FBE0F901F90189508951F9222
:101050000F920FB60F9211240BB60F922F933F935E
:101060004F935F936F937F938F939F93AF93BF93B0
:10107000EF93FF938091360168EC75E00E9486073C
:10108000FF91EF91BF91AF919F918F917F916F9160
:101090005F914F913F912F910F900BBE0F900FBE1C
:1010A0000F901F90189585E695E00E94EB06892B1E
:1010B00011F00E949F0786E495E00E94EB06892BC1
:1010C00011F00E94CC0787E295E00E94EB06892B85
:1010D00011F00E94F90788E095E00E94EB06892B49
:1010E00011F00C94260808951F920F920FB60F92DC
:1010F00011240BB60F922F933F938F939F93EF93EF
:10110000FF9320915C0730915D0780915E0790917D
:101110005F072817390731F48091C1008F7D8093D4
:10112000C10014C0E0915E07F0915F07E45EF84FE4
:10113000208180915E0790915F0701968F739927B8
:1011400090935F0780935E072093C600FF91EF9115
:101150009F918F913F912F910F900BBE0F900FBEDB
:101160000F901F9018951F920F920FB60F92112497
:101170000BB60F922F933F938F939F93EF93FF9311
:101180002091D4063091D5068091D6069091D7064D
:101190002817390731F48091C9008F7D8093C900E9
:1011A00014C0E091D606F091D706EC56F94F208195
:1011B0008091D6069091D70601968F7399279093C8
:1011C000D7068093D6062093CE00FF91EF919F9192
:1011D0008F913F912F910F900BBE0F900FBE0F90EC
:1011E0001F9018951F920F920FB60F9211240BB6F5
:1011F0000F922F933F938F939F93EF93FF932091A1
:101200004C0630914D0680914E0690914F0628175E
:10121000390731F48091D1008F7D8093D10014C0C3
:10122000E0914E06F0914F06E45FF94F20818091E6
:101230004E0690914F0601968F73992790934F0613
:1012400080934E062093D600FF91EF919F918F914E
:101250003F912F910F900BBE0F900FBE0F901F90DC
:1012600018951F920F920FB60F9211240BB60F9282
:101270002F933F938F939F93EF93FF932091C405F8
:101280003091C5058091C6059091C705281739078B
:1012900031F4809131018F7D8093310114C0E09150
:1012A000C605F091C705EC57FA4F20818091C6051D
:1012B0009091C70501968F7399279093C7058093E6
:1012C000C60520933601FF91EF919F918F913F9139
:1012D0002F910F900BBE0F900FBE0F901F9018957F
:1012E000CF92DF92EF92FF92CF93DF93EC016A01EE
:1012F0007B01411581EE580761057105F9F0EC8914
:10130000FD8981E090E00E8C02C0880F991F0A943D
:10131000E2F7808360E079E08DE390E0A701960139
:101320000E94C60B21503109410951095695479534
:1013300037952795211580E1380798F0EC89FD89CC
:10134000108260E874E88EE190E0A70196010E94A7
:10135000C60B2150310941095109569547953795DA
:101360002795E889F9893083EA89FB892083EE890A
:10137000FF89408181E090E09C010A8C02C0220F2D
:10138000331F0A94E2F7422B4083EE89FF894081A4
:101390009C010B8C02C0220F331F0A94E2F7422BF0
:1013A0004083EE89FF8940819C010C8C02C0220F92
:1013B000331F0A94E2F7422B4083EE89FF89208194
:1013C0000D8C02C0880F991F0A94E2F78095822342
:1013D0008083DF91CF91FF90EF90DF90CF900895C1
:1013E00081E00895CF93109268051092670588EE0A
:1013F00093E0A0E0B0E08093690590936A05A09324
:101400006B05B0936C0527E432E0309366052093BA
:10141000650540E657E050937205409371054CE135
:1014200057E0509374054093730545EC50E050939A
:1014300076054093750544EC50E050937805409351
:10144000770540EC50E050937A054093790541ECE4
:1014500050E050937C0540937B0546EC50E0509360
:101460007E0540937D05C4E0C0937F05F3E0F093D3
:101470008005E7E0E093810575E07093820561E007
:1014800060938305109249051092480580934A05A0
:1014900090934B05A0934C05B0934D0530934705B1
:1014A0002093460548ED56E050935305409352056E
:1014B00044E956E050935505409354054DEC50E0F7
:1014C00050935705409356054CEC50E05093590506
:1014D0004093580548EC50E050935B0540935A0503
:1014E00049EC50E050935D0540935C054EEC50E0B4
:1014F00050935F0540935E05C0936005F0936105CE
:10150000E0936205709363056093640510922A0569
:101510001092290580932B0590932C05A0932D05FF
:10152000B0932E05309328052093270540E556E01B
:1015300050933405409333054CE056E05093360504
:101540004093350545ED50E05093380540933705FD
:1015500044ED50E050933A054093390540ED50E09A
:1015600050933C0540933B0541ED50E050933E05C0
:1015700040933D0546ED50E05093400540933F05B4
:10158000C0934105F0934205E093430570934405F1
:101590006093450510920B0510920A0580930C0587
:1015A00090930D05A0930E05B0930F053093090598
:1015B0002093080588EC95E0909315058093140519
:1015C00084E895E0909317058093160585E391E0F4
:1015D000909319058093180584E391E090931B057F
:1015E00080931A0580E391E090931D0580931C057C
:1015F00081E391E090931F0580931E0586E391E0BF
:101600009093210580932005C0932205F093230534
:10161000E09324057093250560932605CF910895E6
:101620000E94AE050E943901C3E5D8E00E946D0119
:101630002097E1F30E945308F9CF0C94EC0BCF9262
:10164000DF92EF92FF920F931F93CF93DF936C0182
:10165000EB017A01E60EF71E00E010E00BC0699185
:10166000D601ED91FC910190F081E02DC601099524
:10167000080F191FCE15DF0591F7C801DF91CF9133
:101680001F910F91FF90EF90DF90CF900895DB01B5
:101690000D900020E9F7AD0141505109461B570B51
:1016A000DC01ED91FC910280F381E02D09940C9412
:1016B000470BDC01ED91FC910190F081E02D099444
:1016C0000F931F93CF93DF93EC016DE00E94590BB2
:1016D0008C016AE0CE010E94590B9C01200F311F42
:1016E000C901DF91CF911F910F9108950F931F931F
:1016F000CF93DF93EC010E94470B8C01CE010E9437
:10170000600B9801280F391FC901DF91CF911F91FC
:101710000F91089561E084E30E947C0661E083E319
:101720000E947C0661E085E30E947C0660E084E321
:101730000E94B40660E083E30E94B40661E085E3A2
:101740000E94B4068CB580618CBD8CB580648CBD64
:101750000895811103C08CB5806202C08CB58F7D65
:101760008CBD0895AA1BBB1B51E107C0AA1FBB1F5C
:10177000A617B70710F0A61BB70B881F991F5A951D
:10178000A9F780959095BC01CD010895A1E21A2E8C
:10179000AA1BBB1BFD010DC0AA1FBB1FEE1FFF1F15
:1017A000A217B307E407F50720F0A21BB30BE40B65
:1017B000F50B661F771F881F991F1A9469F76095AC
:1017C0007095809590959B01AC01BD01CF01089566
:1017D0000790F691E02D09940F931F93CF93DF9319
:1017E0008230910510F482E090E0E091A607F0913C
:1017F000A70720E030E0C0E0D0E023C04081518165
:1018000048175907A8F04817590761F48281938156
:10181000209719F09B838A832EC09093A70780930B
:10182000A60729C02115310529F04217530710F0EA
:10183000A90102C0BE01DF0102811381EF019A01FB
:10184000F8013097D9F62115310509F1281B390B1C
:101850002430310590F412968D919C911397611567
:10186000710521F0FB019383828304C09093A70745
:101870008093A607FD01329644C0FD01E20FF31FDD
:1018800081939193225031092D933C933AC020913A
:10189000A4073091A507232B41F420910202309137
:1018A00003023093A5072093A407209100023091F2
:1018B00001022115310541F42DB73EB740910402D4
:1018C00050910502241B350BE091A407F091A50768
:1018D000E217F307A0F42E1B3F0B2817390778F007
:1018E000AC014E5F5F4F2417350748F04E0F5F1F66
:1018F0005093A5074093A4078193919302C0E0E021
:10190000F0E0CF01DF91CF911F910F910895EF92F9
:10191000FF920F931F93CF93DF93009709F48EC02C
:10192000DC01129713961C921E921297E090A60764
:10193000F090A707E114F10489F42D913C911197DF
:10194000280F391F8091A4079091A507821793074C
:1019500089F5B093A507A093A40770C0E70120E024
:1019600030E001C0EA01CA17DB0738F44A815B8125
:101970009E0141155105B1F722C0AC0142505109F9
:10198000FA01D383C28300811181BC01600F711FF2
:101990006C177D0761F468817981600F711F6E5F3C
:1019A0007F4F718360836A817B817383628321159A
:1019B000310529F4B093A707A093A6073FC0F9010A
:1019C000B383A283E90149915991C40FD51FAC1784
:1019D000BD0771F4DC019E918E91840F951F0296D4
:1019E0009183808312968D919C9113979383828328
:1019F000A0E0B0E002C0D7017C01F70182819381B1
:101A00000097C9F7C701029620813181820F931F89
:101A10002091A4073091A5072817390779F410976A
:101A200029F41092A7071092A60704C013961C92DF
:101A30001E921297F092A507E092A407DF91CF9132
:101A40001F910F91FF90EF9008950F931F93CF93E5
:101A5000DF93EC018B01009731F46115710519F4E6
:101A6000E0E0F0E037C06EE070E081E090E00E94DE
:101A7000700DFC010097A1F380E883830115110527
:101A800071F01387028781E883838091A807909182
:101A9000A907892B21F4F093A907E093A8072097C1
:101AA000C9F0D187C0878381826083838091AA0730
:101AB0009091AB07892B71F4F093AB07E093AA07E1
:101AC0008091AC079091AD07892B21F4F093AD077D
:101AD000E093AC07CF01DF91CF911F910F91089553
:101AE0000F931F93CF93DF93689F8001699F100D21
:101AF000789F100D1124C8010E94EC0BC82FD92F1C
:101B0000209731F0A80160E070E08C2F0E948E0DCC
:101B1000CE01DF91CF911F910F910895DC0101C09B
:0E1B20006D9341505040E0F70895F894FFCFC8
:101B2E000000AE0720007465737431007465737421
:101B3E00000000000096010002C701D001F402EA85
:101B4E000134026402B701A501D8019402BF01AEAF
:101B5E0001E101C4029F03830354032E038C0192FF
:101B6E000194010000000050071F0BEB061A07FE40
:041B7E00063E070018
:00000001FF
