:100000000C94F8000C9427010C9427010C94270100
:100010000C9427010C9427010C9427010C942701C0
:100020000C9427010C9427010C9427010C942701B0
:100030000C9427010C9427010C9427010C942701A0
:100040000C9427010C9427010C9427010C94270190
:100050000C9427010C9427010C9427010C9480091F
:100060000C9427010C940C0C0C94E00C0C942701BC
:100070000C9427010C9427010C9427010C94270160
:100080000C9427010C9427010C9427010C94270150
:100090000C94390C0C941F0D0C9427010C9427011F
:1000A0000C9427010C9427010C9427010C94270130
:1000B0000C9427010C9427010C9427010C945609E9
:1000C0000C9427010C9427010C9427010C94660CC6
:1000D0000C945E0D0C9427010C94930C0C949D0DC4
:1000E0000C9427010000090A02080B0C0D070603F7
:1000F00004010000000000000000000000000000FB
:1001000000000000000000000000000000000000EF
:1001100011100F00000000000000000000000000AF
:100120000000000000000000000001021020200874
:100130000810204010204080020102010804020142
:1001400001020408102040808040201008040201B1
:10015000800402018040201008040201080402010A
:100160000102040810204080010204081020408091
:1001700005050505070508080808020202020A0A23
:100180000808040404040101010101010101030341
:10019000030303030303040707070C0C0C0C0C0CEC
:1001A0000C0C0202020206060606060606060B0BE9
:1001B0000B0B0B0B0B0B00002200250028002B0063
:1001C0002E003100340002010000050108010B017E
:1001D00000002100240027002A002D0030003300F9
:1001E00001010000040107010A0191015E0E620293
:1001F00011241FBECFEFD1E2DEBFCDBF14E0A0E0DF
:10020000B2E0EEE5F8E200E00BBF02C007900D920D
:10021000A635B107D9F71AE0A6E5B4E001C01D92F2
:10022000A53DB107E1F711E0CEEED1E000E006C058
:1002300022970109FE010BBF0E948011CA3ED1071F
:1002400080E00807A9F70E947C0F0C941D140C9401
:100250000000CF93C82F682F8CE898E00E94BC0B59
:100260008C2F90E0CF91089560E070E089E291E0FA
:100270000C94AD1340E052EC61E070E08CE898E043
:100280000E94DC0D8CE898E00E945C0E8823D1F37C
:1002900066E072E08CE898E00E94E30F6CE072E0A8
:1002A0008CE898E00E94C40F0E94340161E083E86A
:1002B00095E00E94DD0560E08CE795E00E94DD0599
:1002C00063E373E383E895E00E940E066FEF7FEF30
:1002D0008CE795E00C940E066091560470915704DB
:1002E0006F5F7F4F709357046093560483E895E0E7
:1002F0000E940E0661E070E080E090E00C94F4094A
:10030000CF93DF93EC0183E394E099838883CE015C
:1003100009960E94F70FCE010296DF91CF910C94BF
:10032000F70FCF93DF93CDB7DEB727970FB6F894CB
:10033000DEBF0FBECDBF8AE895E00E94D20840E044
:1003400065E383E895E00E94530841E065E38CE7AC
:1003500095E00E94530842E065E385E795E00E943E
:10036000530861E172E0CE0101960E9468109E017F
:100370002F5F3F4F4CE755E063E875E081E595E07E
:100380000E943804CE0101960E94F70F6CE172E0E2
:10039000CE0101960E9468109E012F5F3F4F40E002
:1003A00051E261E575E08BE295E00E946505CE01C2
:1003B00001960E94F70F6FE272E0CE0101960E9453
:1003C00068109E012F5F3F4F40E050E361E575E00C
:1003D00085E095E00E946505CE0101960E94F70F29
:1003E0006AE372E0CE0101960E9468109E012F5FC1
:1003F0003F4F40E05CE261E575E08FED94E00E94E4
:100400006505CE0101960E94F70F6AE472E0CE0105
:1004100001960E9468109E012F5F3F4F40E054E319
:1004200061E575E089EB94E00E946505CE010196D7
:100430000E94F70F6DE572E0CE0101960E946810F0
:100440009E012F5F3F4F40E058E261E575E083E990
:1004500094E00E946505CE0101960E94F70F69E6BF
:1004600072E0CE0101960E9468109E012F5F3F4FFF
:1004700040E054E261E575E08DE694E00E94650598
:10048000CE0101960E94F70F63E772E0CE0101965C
:100490000E9468109E012F5F3F4F40E052E261E5ED
:1004A00075E088E594E00E94BA04CE0101960E94AE
:1004B000F70F27960FB6F894DEBF0FBECDBFDF91C2
:1004C000CF910895CF93DF938BE992E090935904F5
:1004D0008093580488E594E00E948001C5E8D2E04A
:1004E000D0936E04C0936D048DE694E00E94800169
:1004F000D0939404C093930483E994E00E94800114
:10050000D093BA04C093B90489EB94E00E948001AF
:10051000D093E004C093DF048FED94E00E9480014B
:10052000D0930605C093050585E095E00E94800103
:10053000D0932C05C0932B058BE295E00E9480019F
:1005400082E093E0909352058093510589E695E00F
:100550000E94F70F81E595E0DF91CF910C94800127
:1005600008950895089580E008950F931F93CF9301
:10057000DF93EC018B01488959896A897B894F5F38
:100580005F4F6F4F7F4F488B598B6A8B7B8B6BA173
:100590006D7F61606BA3A9A1BAA1ED91FC91119748
:1005A000028CF38DE02DCD010995AF8DB8A1ED91B1
:1005B000FC9111970480F581E02DB801CD010995DA
:1005C0006BA164606BA3A9A1BAA1ED91FC911197F5
:1005D000028CF38DE02DCD0109956BA162606BA3B8
:1005E000A9A1BAA1ED91FC911197028CF38DE02D98
:1005F000CD010995A9A1BAA1ED91FC9111970088AF
:10060000F189E02DCD010995182F6BA1697F6BA3AE
:10061000A9A1BAA1ED91FC911197028CF38DE02D67
:10062000CD010995812FDF91CF911F910F910895F1
:10063000CF92DF92EF92FF920F931F93CF93DF93AE
:100640001F92CDB7DEB76C017B01DC0154960D9192
:100650001D912D913C9157970F5F1F4F2F4F3F4F8B
:10066000FC01048B158B268B378B63A16C7F63A3F6
:10067000A1A1B2A1ED91FC911197028CF38DE02D17
:10068000CD0149830995F601A78DB0A1ED91FC91AB
:1006900011970480F581E02DB701CD010995D601B0
:1006A00093966C919397646093966C9393979196BD
:1006B0000D90BC91A02DED91FC911197028CF38DC2
:1006C000E02DCD010995F601A1A1B2A1ED91FC911A
:1006D00011970488F589E02D6FEFCD010995F6019A
:1006E000A1A1B2A1ED91FC91119722893389498191
:1006F000642FCD01F9010995D60193966C919397DA
:10070000626093966C93939791960D90BC91A02DF7
:10071000ED91FC911197028CF38DE02DCD0109959F
:10072000F60163A16D7F63A3A1A1B2A1ED91FC913C
:100730001197028CF38DE02DCD010995F601A1A151
:10074000B2A1ED91FC9111970488F589E02D60E04C
:10075000CD010995D60193966C919397697F61605D
:1007600093966C93939791960D90BC91A02DED91DB
:10077000FC911197028CF38DE02DCD010F90DF914C
:10078000CF911F910F91FF90EF90DF90CF90099440
:10079000EF92FF920F931F93CF93DF93CDB7DEB706
:1007A00027970FB6F894DEBF0FBECDBF8C017B013B
:1007B0006DEA72E00E94681061EC72E0CE01019671
:1007C0000E946810B701685E7F4FCE0101960E94BB
:1007D000F910BC01C8010E94E210CE0101960E94EE
:1007E000F70F63ED72E0CE0101960E946810B70129
:1007F0006E5F7F4FCE0101960E94F910BC01C801C7
:100800000E94E210CE0101960E94F70F6DE274E0A3
:10081000C8010E94E910C80127960FB6F894DEBF00
:100820000FBECDBFDF91CF911F910F91FF90EF9041
:100830000895CF93DF93EC0123E334E0FC0121938F
:100840003193CF016EE274E00E9468106EE274E0B2
:10085000CE0109960E94681082E093E09983888314
:100860006EE274E0CE014896DF91CF910C9468104F
:10087000CF92DF92EF92FF920F931F93CF93DF936C
:10088000EC017B018A0169010E94190480E293E076
:10089000998388831C8A1D8A1E8A1F8A188A198A4E
:1008A0001A8A1B8AB601CE0102960E94851063EF58
:1008B00072E0CE0148960E949C101BA21AA309A3C5
:1008C000F8A2EF8ED801ED91FC910190F081E02D1E
:1008D00060E0C8010995AF8DB8A1ED91FC91119729
:1008E0000190F081E02D61E0CD010995A9A1BAA1A7
:1008F000ED91FC9111970480F581E02D6FEF7FEF72
:10090000CD010995AF8DB8A1ED91FC9111970480AF
:10091000F581E02D60E070E0CD010995A9A1BAA1B3
:10092000ED91FC911197068CF78DE02D41E061E08F
:10093000CD010995A9A1BAA1ED91FC911197068C61
:10094000F78DE02D41E062E0CD010995A9A1BAA1A2
:10095000ED91FC911197068CF78DE02D41E060E060
:10096000CD01DF91CF911F910F91FF90EF90DF901C
:10097000CF900994AF92BF92CF92DF92EF92FF9205
:100980000F931F93CF93DF93EC017B015A01690111
:1009900023E334E0FC0121933193CF016EE274E054
:1009A0000E9468108E01075F1F4F6EE274E0C8015D
:1009B0000E9468108BE992E099838883188AFA8AEA
:1009C000E98ABC8AAB8AB601C801DF91CF911F9139
:1009D0000F91FF90EF90DF90CF90BF90AF900C946D
:1009E0008510CF93DF93FC01DB018C9180A380897C
:1009F0009189EC012881398164897589E901EC8943
:100A0000FD894C91DF91CF910994CF93DF93FC0145
:100A1000DB018C9181A380899189EC012881398146
:100A200066897789E901EC89FD894C91DF91CF9145
:100A300009940F931F93CF93DF93EC018B0148A18F
:100A40004B7F48A388899989DC01ED91FC916C89E1
:100A50007D890488F589E02D0995F80140814AA334
:100A600088899989DC01ED91FC91688D798D0488E4
:100A7000F589E02DDF91CF911F910F9109940F938C
:100A80001F93CF93DF93EC018B0149A14B7F49A3C7
:100A900088899989DC01ED91FC916E897F890488B0
:100AA000F589E02D0995F80140814BA38889998942
:100AB000DC01ED91FC916A8D7B8D0488F589E02D38
:100AC000DF91CF911F910F9109948F929F92AF92D6
:100AD000BF92CF92DF92EF92FF920F931F93CF932B
:100AE000DF931F92CDB7DEB78C015B017A0149011C
:100AF00083E394E0F801819391936F016EE274E0D7
:100B0000CF010E9468106EE274E0C80109960E944D
:100B1000681085E892E0F80191838083B401C601F2
:100B20000E948510F801F38AE28AC7010196958B2D
:100B3000848BC7010396978B868BF18EE08EC7015D
:100B40000296938F828FF58EE48E978F868FB18A6F
:100B5000A08A1982BE016F5F7F4FC8010E94F10415
:100B60001982BE016F5F7F4FC8010E94050519827F
:100B7000BE016F5F7F4FC8010E9419051982BE0137
:100B80006F5F7F4FC8010E943F050F90DF91CF91AB
:100B90001F910F91FF90EF90DF90CF90BF90AF909B
:100BA0009F908F900895962F80E09C01242BC9017F
:100BB0000895872F0895862F0895611103C04FEF80
:100BC0005FEF02C040E050E0DC01ED91FC9104A039
:100BD000F5A1E02D60E00994462FDC01ED91FC9138
:100BE00006A0F7A1E02D62E10994462FDC01ED910A
:100BF000FC9106A0F7A1E02D63E10994DC01ED91E1
:100C0000FC9102A0F3A1E02D62E10994DC01ED91D9
:100C1000FC9102A0F3A1E02D63E10994AB01DC019A
:100C2000ED91FC9104A0F5A1E02D62E10994DC01B5
:100C3000ED91FC9100A0F1A1E02D62E10994462F15
:100C4000DC01ED91FC9106A0F7A1E02D60E0099494
:100C5000462FDC01ED91FC9106A0F7A1E02D61E0AB
:100C60000994CF93C62FDC01ED91FC9100A0F1A176
:100C7000E02D62E1099521E030E002C0220F331F30
:100C8000CA95E2F728233923C901CF910895FF922D
:100C90000F931F93CF93DF93EC01F62EA881B981B8
:100CA00094960D911C9195979096ED91FC9191974A
:100CB00060E041110BC0099541E050E002C0440FD3
:100CC000551FFA94E2F7482B592B0CC0099541E0C7
:100CD00050E002C0440F551FFA94E2F7409550953A
:100CE0004823592360E0CE01F801DF91CF911F9195
:100CF0000F91FF900994FF920F931F93CF93DF936F
:100D0000EC01F62EA881B98196960D911C919797CA
:100D10009296ED91FC91939760E0442351F00995F0
:100D200041E050E00F2C01C0440F0A94EAF7482B31
:100D300009C0099541E050E001C0440FFA94EAF778
:100D40004095482360E0CE01F801DF91CF911F91DB
:100D50000F91FF900994FF920F931F93CF93DF930E
:100D6000EC01F62EA881B98196960D911C9197976A
:100D70009296ED91FC91939762E1442351F009958D
:100D800041E050E00F2C01C0440F0A94EAF7482BD1
:100D900009C0099541E050E001C0440FFA94EAF718
:100DA0004095482362E1CE01F801DF91CF911F9178
:100DB0000F91FF900994FF920F931F93CF93DF93AE
:100DC000EC01F62EA881B98196960D911C9197970A
:100DD0009296ED91FC91939763E1442351F009952C
:100DE00041E050E00F2C01C0440F0A94EAF7482B71
:100DF00009C0099541E050E001C0440FFA94EAF7B8
:100E00004095482363E1CE01F801DF91CF911F9116
:100E10000F91FF900994FF920F931F93CF93DF934D
:100E2000EC01F62EA881B98196960D911C919797A9
:100E30009296ED91FC91939761E0442351F00995CE
:100E400041E050E00F2C01C0440F0A94EAF7482B10
:100E500009C0099541E050E001C0440FFA94EAF757
:100E60004095482361E0CE01F801DF91CF911F91B9
:100E70000F91FF900994FF920F931F93CF93DF93ED
:100E8000EC01F62EA881B98194960D911C9195974D
:100E90009096ED91FC91919762E1442359F0099568
:100EA00041E050E002C0440F551FFA94E2F7482B8E
:100EB000592B0CC0099541E050E002C0440F551F6A
:100EC000FA94E2F7409550954823592362E1CE0108
:100ED000F801DF91CF911F910F91FF9009948EBD82
:100EE0000DB407FEFDCF8EB50895EF92FF921F93CC
:100EF000CF93DF931F92CDB7DEB77C01162F60E052
:100F0000FC01868149830E94200BF70185810E94A4
:100F10006F07812F0E946F074981842F0E946F07FE
:100F200061E0F70186810F90DF91CF911F91FF90D3
:100F3000EF900C94200BFF920F931F93CF93DF93AE
:100F4000EC01F62E8A0160E08E810E94200B8D81DB
:100F50000E946F078F2D0E946F07E881F98104A41A
:100F6000F5A5E02DB801CE0109950E946F07E88133
:100F7000F98102A4F3A5E02DB801CE0109950E94E4
:100F80006F0761E08E81DF91CF911F910F91FF90EC
:100F90000C94200B1F93CF93DF93EC01162F60E08E
:100FA0008E810E94200B8C810E946F07812F0E94EE
:100FB0006F0780E00E946F07182F61E08E810E940A
:100FC000200B812FDF91CF911F910895EF92FF9217
:100FD0001F93CF93DF931F92CDB7DEB77C01162FFF
:100FE00060E0DC0116968C910E94200BF701848151
:100FF0000E946F07812F0E946F0780E00E946F0799
:10100000482F80E049830E946F07182F61E0D701C5
:1010100016968C910E94200BD701ED91FC9100A4B3
:10102000F1A5E02D4981612FC7010F90DF91CF918C
:101030001F91FF90EF9009941F93CF93DF93EC01E2
:10104000162F61E0812F0E94E80A61E0812F0E9443
:10105000200B1E83DF91CF911F9108950F931F9353
:10106000CF93DF93EC016B8370E0660F771FCB01AA
:1010700081648C8360646D83A881B98194960D919D
:101080001C9195979096ED91FC9191976AE0CE0115
:101090000995AC0140626AE0CE01F801DF91CF9181
:1010A0001F910F9109940F931F93CF93DF93EC013E
:1010B000162F042F2EE333E0398328830E940F116B
:1010C000612FCE010E941C0881E00E942E1180E059
:1010D0000E94371180E00E943C1160E0812F0E9445
:1010E000200B80E40E946F078AE00E946F0788E06F
:1010F0000E946F0761E0812F0E94200B60E0812F2A
:101100000E94200B8EE40E946F078AE00E946F0706
:1011100088E00E946F0761E0812F0E94200B67E04A
:10112000CE010E942E086AE0CE010E94E607AC01C3
:1011300048606AE0CE010E949B0760E0CE010E94F9
:101140002E086AE0CE010E94E607AC0148606AE022
:10115000CE010E949B07602FCE01DF91CF911F919E
:101160000F910C942E0808950895089508950895F8
:1011700080E0089580E00895CF93DF93EC016EE264
:1011800074E00E946810CE01DF91CF910895CF9353
:10119000DF93EC016EE274E00E946810CE01DF91F3
:1011A000CF910895CF93DF93EC0181E090E00E940E
:1011B000890F9093230880932208198218821A823B
:1011C0001B82DF91CF910895EF92FF920F931F93AF
:1011D000CF93DF93EC01809124089091250801962C
:1011E00090932508809324088A81811104C08B8103
:1011F00081112FC054C07E0100E010E024C0D7014F
:1012000014962D913C91159721153105B9F0FE01E9
:10121000E00FF11FE453FF4F60818091240890910B
:10122000250870E00E944A11892B41F4D901ED9103
:10123000FC910190F081E02DC90109950F5F1F4FCE
:10124000B2E0EB0EF11C8A8190E008171907BCF29E
:10125000CECF7E0100E010E01DC0F701E05DFE4F43
:101260000190F081E02D309781F0DE01A00FB11FD9
:10127000A059BE4F6C91809124089091250870E090
:101280000E944A11892B09F409950F5F1F4FE2E074
:10129000EE0EF11C8B8190E008171907F4F2DF9134
:1012A000CF911F910F91FF90EF9008951F920F9291
:1012B0000FB60F9211240BB60F922F933F934F93BB
:1012C0005F936F937F938F939F93AF93BF93EF93AE
:1012D000FF938AE895E00E94E408FF91EF91BF91A7
:1012E000AF919F918F917F916F915F914F913F91BE
:1012F0002F910F900BBE0F900FBE0F901F9018955F
:101300001F920F920FB60F9211242F933F938F933A
:101310009F93AF93BF938091260890912708A09147
:101320002808B091290830912E08232F2D5F2D37E2
:1013300020F40196A11DB11D05C0232F2A57029646
:10134000A11DB11D20932E08809326089093270895
:10135000A0932808B093290880912A0890912B081F
:10136000A0912C08B0912D080196A11DB11D80936C
:101370002A0890932B08A0932C08B0932D08BF91B6
:10138000AF919F918F913F912F910F900FBE0F9032
:101390001F9018950F931F939FB7F89400912A08F8
:1013A00010912B0820912C0830912D0886B5A89B10
:1013B00006C08F3F21F00F5F1F4F2F4F3F4F9FBF42
:1013C000322F212F102F0027080F111D211D311D35
:1013D00042E0000F111F221F331F4A95D1F7B801B9
:1013E000C9011F910F910895CF92DF92EF92FF9262
:1013F000CF93DF936B017C010E94CA09EB010EC001
:101400000E94CA096C1B7D0B683E734038F081E076
:10141000C81AD108E108F108C851DC4FC114D10441
:10142000E104F10469F7DF91CF91FF90EF90DF9035
:10143000CF900895789484B5826084BD84B581602E
:1014400084BD85B5826085BD85B5816085BDEEE6CC
:10145000F0E0808181608083E1E8F0E010828081AB
:1014600082608083808181608083E0E8F0E0808119
:1014700081608083E1EBF0E0808184608083E0EB39
:10148000F0E0808181608083E1E9F0E0808182602A
:101490008083808181608083E0E9F0E080818160E9
:1014A0008083E1EAF0E080818260808380818160D6
:1014B0008083E0EAF0E0808181608083E1E2F1E016
:1014C000808182608083808181608083E0E2F1E0BE
:1014D000808181608083EAE7F0E08081846080839E
:1014E0008081826080838081816080838081806848
:1014F00080831092C1000895893009F443C088F4B4
:10150000843029F138F4823059F1E8F4813009F05F
:101510005EC023C0873061F188F5863009F057C07E
:1015200023C08D3009F440C020F48B30A9F1C0F500
:101530002DC0803109F442C0813109F443C08F309D
:1015400009F045C037C0809180008F7703C080913B
:1015500080008F7D80938000089584B58F7702C0CE
:1015600084B58F7D84BD08958091B0008F7703C0CE
:101570008091B0008F7D8093B0000895809190009D
:101580008F7707C0809190008F7D03C0809190007D
:10159000877F8093900008958091A0008F7707C087
:1015A0008091A0008F7D03C08091A000877F8093F1
:1015B000A0000895809120018F7707C080912001BD
:1015C0008F7D03C080912001877F80932001089543
:1015D000CF93DF9390E0FC01E65DFE4F4491FC0168
:1015E000E059FE4F8491882341F190E0880F991FC4
:1015F000FC01E053FE4F25913491D9018A549E4F4E
:10160000FC0185919491C82FD92F9FB7F8948C91A4
:10161000611106C0409584238C938881842308C07F
:10162000623041F4242F209582238C938881842B6F
:10163000888302C0842B8C939FBFDF91CF91089544
:101640000F931F93CF93DF931F92CDB7DEB7282F51
:1016500030E0F901EC51FF4F8491F901E65DFE4F56
:101660001491F901E059FE4F04910023D1F0882331
:1016700021F069830E947C0A6981E02FF0E0EE0F7F
:10168000FF1FEA54FE4F85919491DC019FB7F894B7
:101690008C91611103C01095812301C0812B8C9323
:1016A0009FBF0F90DF91CF911F910F910895FC0183
:1016B00084859585FC01E05CFF4F20813181FC0130
:1016C000EE5BFF4F80819181281B390B2F733327ED
:1016D000C9010895FC0184859585FC01E05CFF4FFC
:1016E00040815181FC01EE5BFF4F20813181421727
:1016F000530741F00190F081E02DE80FF91F2081A0
:1017000030E002C02FEF3FEFC9010895FC0184854E
:101710009585FC01E05CFF4F40815181FC01EE5B4F
:10172000FF4F208131814217530781F0A081B181A1
:10173000A80FB91F8C91208131812F5F3F4F2F73EC
:10174000332731832083282F30E002C02FEF3FEF73
:10175000C9010895FC0186859785FC01E05CFF4F77
:10176000DC01AE5BBF4F408151812D913C911197BF
:1017700042175307C1F70895CF93DF93FC01868585
:101780009785DC01A05CBF4F2D913C9111972F5F95
:101790003F4F2F733327EC01CE5BDF4F48815981D8
:1017A00024173507D9F30D90BC91A02DA80FB91FB0
:1017B0006C93A685B785A05CBF4F11963C932E9382
:1017C000A689B7892C9181E090E0058C02C0880F32
:1017D000991F0A94E2F7282B2C9381E090E0DF9187
:1017E000CF910895FB01E05CFF4F208131812F5F95
:1017F0003F4F2F733327DB01AE5BBF4F4D915C91A1
:101800002417350739F0A081B181A60FB71F8C933B
:1018100031832083089508951F920F920FB60F927F
:1018200011240BB60F922F933F934F935F936F93B7
:101830007F938F939F93AF93BF93EF93FF93809189
:10184000C60067E87AE00E94F20BFF91EF91BF912A
:10185000AF919F918F917F916F915F914F913F9148
:101860002F910F900BBE0F900FBE0F901F901895E9
:1018700008951F920F920FB60F9211240BB60F927C
:101880002F933F934F935F936F937F938F939F9388
:10189000AF93BF93EF93FF938091CE006FEF79E00A
:1018A0000E94F20BFF91EF91BF91AF919F918F91A9
:1018B0007F916F915F914F913F912F910F900BBE50
:1018C0000F900FBE0F901F90189508951F920F92C2
:1018D0000FB60F9211240BB60F922F933F934F9395
:1018E0005F936F937F938F939F93AF93BF93EF9388
:1018F000FF938091D60067E779E00E94F20BFF9199
:10190000EF91BF91AF919F918F917F916F915F9177
:101910004F913F912F910F900BBE0F900FBE0F90E4
:101920001F90189508951F920F920FB60F921124D1
:101930000BB60F922F933F934F935F936F937F93C9
:101940008F939F93AF93BF93EF93FF938091360153
:101950006FEE78E00E94F20BFF91EF91BF91AF9193
:101960009F918F917F916F915F914F913F912F91B7
:101970000F900BBE0F900FBE0F901F9018958CE824
:1019800098E00E94570B892B11F00E940B0C8DE6FA
:1019900098E00E94570B892B11F00E94380C8EE4BE
:1019A00098E00E94570B892B11F00E94650C8FE282
:1019B00098E00E94570B892B11F00C94920C08951B
:1019C0001F920F920FB60F9211240BB60F922F9306
:1019D0003F938F939F93EF93FF932091830A3091CE
:1019E000840A8091850A9091860A2817390731F474
:1019F0008091C1008F7D8093C10014C0E091850A61
:101A0000F091860AED5BF54F20818091850A9091D7
:101A1000860A01968F7399279093860A8093850A88
:101A20002093C600FF91EF919F918F913F912F914D
:101A30000F900BBE0F900FBE0F901F9018951F9226
:101A40000F920FB60F9211240BB60F922F933F9364
:101A50008F939F93EF93FF932091FB093091FC09A3
:101A60008091FD099091FE092817390731F4809182
:101A7000C9008F7D8093C90014C0E091FD09F091E9
:101A8000FE09E554F64F20818091FD099091FE09F1
:101A900001968F7399279093FE098093FD092093F7
:101AA000CE00FF91EF919F918F913F912F910F90D9
:101AB0000BBE0F900FBE0F901F9018951F920F92A4
:101AC0000FB60F9211240BB60F922F933F938F9363
:101AD0009F93EF93FF932091730930917409809144
:101AE0007509909176092817390731F48091D10052
:101AF0008F7D8093D10014C0E0917509F091760933
:101B0000ED5CF64F208180917509909176090196E0
:101B10008F73992790937609809375092093D60047
:101B2000FF91EF919F918F913F912F910F900BBE5D
:101B30000F900FBE0F901F9018951F920F920FB627
:101B40000F9211240BB60F922F933F938F939F9375
:101B5000EF93FF932091EB083091EC088091ED0812
:101B60009091EE082817390731F4809131018F7D6B
:101B70008093310114C0E091ED08F091EE08E55535
:101B8000F74F20818091ED089091EE0801968F73B8
:101B900099279093EE088093ED0820933601FF91EA
:101BA000EF919F918F913F912F910F900BBE0F90CE
:101BB0000FBE0F901F901895CF92DF92EF92FF9279
:101BC000CF93DF93EC016A017B01411581EE580749
:101BD00061057105F9F0EC89FD8981E090E00E8CDA
:101BE00002C0880F991F0A94E2F7808360E079E0D1
:101BF0008DE390E0A70196010E945E11215031090A
:101C0000410951095695479537952795211580E14A
:101C1000380798F0EC89FD89108260E874E88EE15D
:101C200090E0A70196010E945E11215031094109FF
:101C300051095695479537952795E889F989308355
:101C4000EA89FB892083EE89FF89408181E090E069
:101C50009C010A8C02C0220F331F0A94E2F7422B28
:101C60004083EE89FF8940819C010B8C02C0220FCA
:101C7000331F0A94E2F7422B4083EE89FF894081AB
:101C80009C010C8C02C0220F331F0A94E2F7422BF6
:101C90004083EE89FF8920810D8C02C0880F991F37
:101CA0000A94E2F7809582238083DF91CF91FF90A1
:101CB000EF90DF90CF90089581E00895CF93109238
:101CC0008F0810928E0888EE93E0A0E0B0E0809339
:101CD000900890939108A0939208B093930829E4F8
:101CE00034E030938D0820938C0847E85AE05093F5
:101CF00099084093980843E45AE050939B08409316
:101D00009A0845EC50E050939D0840939C0844ECA1
:101D100050E050939F0840939E0840EC50E0509351
:101D2000A1084093A00841EC50E05093A3084093D1
:101D3000A20846EC50E05093A5084093A408C4E0E4
:101D4000C093A608F3E0F093A708E7E0E093A808A3
:101D500075E07093A90861E06093AA08109270087A
:101D600010926F088093710890937208A093730883
:101D7000B093740830936E0820936D084FEF59E0CC
:101D800050937A08409379084BEB59E050937C08C4
:101D900040937B084DEC50E050937E0840937D08C3
:101DA0004CEC50E05093800840937F0848EC50E0A2
:101DB000509382084093810849EC50E05093840886
:101DC000409383084EEC50E050938608409385087A
:101DD000C0938708F0938808E093890870938A0875
:101DE00060938B081092510810925008809352080B
:101DF00090935308A0935408B093550830934F081C
:101E000020934E0847E759E050935B0840935A08E7
:101E100043E359E050935D0840935C0845ED50E082
:101E200050935F0840935E0844ED50E05093610882
:101E30004093600840ED50E050936308409362087F
:101E400041ED50E0509365084093640846ED50E042
:101E50005093670840936608C0936808F093690838
:101E6000E0936A0870936B0860936C0810923208D4
:101E7000109231088093330890933408A09335086A
:101E8000B09336083093300820932F088FEE98E0F7
:101E900090933C0880933B088BEA98E090933E082F
:101EA00080933D0885E391E09093400880933F083C
:101EB00084E391E0909342088093410880E391E0AD
:101EC000909344088093430881E391E090934608FF
:101ED0008093450886E391E09093480880934708F3
:101EE000C0934908F0934A08E0934B0870934C085C
:101EF00060934D08CF9108950E941A0A0E943A01FA
:101F0000CFEBDCE00E946C012097E1F30E94BF0C54
:101F1000F9CF0C9484110895CF92DF92EF92FF9243
:101F20000F931F93CF93DF936C01EB017A01E60EC1
:101F3000F71E00E010E00BC06991D601ED91FC9115
:101F40000190F081E02DC6010995080F191FCE15EB
:101F5000DF0591F7C801DF91CF911F910F91FF909D
:101F6000EF90DF90CF900895DB010D900020E9F70E
:101F7000AD0141505109461B570BDC01ED91FC911D
:101F80000280F381E02D09940C94B40FDC01ED91F3
:101F9000FC910190F081E02D09940F931F93CF9352
:101FA000DF93EC016DE00E94C60F8C016AE0CE0168
:101FB0000E94C60F9C01200F311FC901DF91CF91F4
:101FC0001F910F9108950F931F93CF93DF93EC010F
:101FD0000E94B40F8C01CE010E94CD0F9801280FF2
:101FE000391FC901DF91CF911F910F910895FC0115
:101FF000808191810C941F12CF93DF93EC01888133
:102000009981009711F00E941F12198218821D8277
:102010001C821B821A82DF91CF9108950F931F9328
:10202000CF93DF93EC018B016F5F7F4F88819981A4
:102030000E94BD12009731F0998388831B830A8325
:1020400081E001C080E0DF91CF911F910F91089551
:10205000CF93DF93EC0188819981892B31F08A81BC
:102060009B818617970708F00CC0CE010E940E10C6
:10207000882349F08C819D81892B19F4E881F981AD
:10208000108281E001C080E0DF91CF910895EF924E
:10209000FF920F931F93CF93DF93EC017B018A0193
:1020A000BA010E942810811104C0CE010E94FC0FC9
:1020B00007C01D830C83B701888199810E94A613F4
:1020C000CE01DF91CF911F910F91FF90EF90089576
:1020D000DC0111961C921E9213961C921E9212976E
:1020E00015961C921E92149716961C9261157105F6
:1020F00059F0DB010D900020E9F7AD014150510985
:10210000461B570B0C9447100895CF93DF93EC01B7
:10211000FB018617970761F0608171816115710578
:1021200029F0448155810E94471002C00E94FC0F93
:10213000CE01DF91CF910895CF93DF93D82FC92F90
:102140006115710561F0DB010D900020E9F7AD012B
:1021500041505109461B570B0E94471002C00E9474
:10216000FC0F8D2F9C2FDF91CF910895EF92FF925E
:102170000F931F93CF93DF93EC017B010C811D81A3
:102180006115710511F480E016C04115510591F0FB
:10219000040F151FB8010E9428108823A1F328817D
:1021A00039818C819D81B701820F931F0E94A613F4
:1021B0001D830C8381E0DF91CF911F910F91FF90E0
:1021C000EF900895FB0144815581608171810C94E9
:1021D000B6106115710559F0DB010D900020E9F78B
:1021E000AD0141505109461B570B0C94B61080E0CD
:1021F0000895CF93DF93D82FC92FFB0144815581D8
:10220000608171810E94B610811104C08D2F9C2FB6
:102210000E94FC0F8D2F9C2FDF91CF91089561E0DC
:1022200084E30E94E80A61E083E30E94E80A61E037
:1022300085E30E94E80A60E084E30E94200B60E0EE
:1022400083E30E94200B61E085E30E94200B8CB5A4
:1022500080618CBD8CB580648CBD0895811103C0F4
:102260008CB5806202C08CB58F7D8CBD08959CB505
:10227000937F982B9CBD08952CB5982F93702C7F3D
:10228000922B9CBD9DB582FB882780F99E7F982B61
:102290009DBD0895AA1BBB1B51E107C0AA1FBB1F10
:1022A000A617B70710F0A61BB70B881F991F5A95E2
:1022B000A9F780959095BC01CD010895A1E21A2E51
:1022C000AA1BBB1BFD010DC0AA1FBB1FEE1FFF1FDA
:1022D000A217B307E407F50720F0A21BB30BE40B2A
:1022E000F50B661F771F881F991F1A9469F7609571
:1022F0007095809590959B01AC01BD01CF0108952B
:102300000790F691E02D09940F931F93CF93DF93DD
:102310008230910510F482E090E0E091CD0AF091D6
:10232000CE0A20E030E0C0E0D0E023C040815181FF
:1023300048175907A8F04817590761F4828193811B
:10234000209719F09B838A832EC09093CE0A8093A6
:10235000CD0A29C02115310529F04217530710F085
:10236000A90102C0BE01DF0102811381EF019A01C0
:10237000F8013097D9F62115310509F1281B390BE1
:102380002430310590F412968D919C91139761152C
:10239000710521F0FB019383828304C09093CE0AE0
:1023A0008093CD0AFD01329644C0FD01E20FF31F78
:1023B00081939193225031092D933C933AC02091FF
:1023C000CB0A3091CC0A232B41F4209102023091A8
:1023D00003023093CC0A2093CB0A20910002309163
:1023E00001022115310541F42DB73EB74091040299
:1023F00050910502241B350BE091CB0AF091CC0AD9
:10240000E217F307A0F42E1B3F0B2817390778F0CB
:10241000AC014E5F5F4F2417350748F04E0F5F1F2A
:102420005093CC0A4093CB0A8193919302C0E0E091
:10243000F0E0CF01DF91CF911F910F910895EF92BE
:10244000FF920F931F93CF93DF93009709F48EC0F1
:10245000DC01129713961C921E921297E090CD0AFF
:10246000F090CE0AE114F10489F42D913C9111977A
:10247000280F391F8091CB0A9091CC0A82179307BD
:1024800089F5B093CC0AA093CB0A70C0E70120E095
:1024900030E001C0EA01CA17DB0738F44A815B81EA
:1024A0009E0141155105B1F722C0AC0142505109BE
:1024B000FA01D383C28300811181BC01600F711FB7
:1024C0006C177D0761F468817981600F711F6E5F01
:1024D0007F4F718360836A817B817383628321155F
:1024E000310529F4B093CE0AA093CD0A3FC0F9017B
:1024F000B383A283E90149915991C40FD51FAC1749
:10250000BD0771F4DC019E918E91840F951F029698
:102510009183808312968D919C91139793838283EC
:10252000A0E0B0E002C0D7017C01F7018281938175
:102530000097C9F7C701029620813181820F931F4E
:102540002091CB0A3091CC0A2817390779F41097DB
:1025500029F41092CE0A1092CD0A04C013961C9250
:102560001E921297F092CC0AE092CB0ADF91CF91A3
:102570001F910F91FF90EF9008958F929F92AF92CD
:10258000BF92CF92DF92EF92FF920F931F93CF9360
:10259000DF93EC01009779F4CB01DF91CF911F918C
:1025A0000F91FF90EF90DF90CF90BF90AF909F90F2
:1025B0008F900C948411DC01A60FB71FFC01329799
:1025C000AE17BF0718F4C0E0D0E0A9C000811181A8
:1025D00006171707B0F00530110508F4A0C0C801B0
:1025E00004978617970708F49AC002501109061B32
:1025F000170B0D931D9371836083CD010E941F12F1
:102600008EC06B01C01AD10A7C01E00EF11EE09170
:10261000CD0AF091CE0A20E030E080E090E048C0A2
:10262000EE15FF05D1F580809180540142E0A40EA3
:10263000B11CAC14BD0488F17401EC18FD086701ED
:1026400022E0C20ED11C9E012250310945E0C41681
:10265000D10478F04281538113965C934E93129784
:102660001196FC92EE92F901718360833A2F2B2F21
:1026700009C00E5F1F4F080D191DD9010D931C9342
:1026800032812381009721F0FC013283238347C0EC
:102690003093CD0A2093CE0A42C0808191812817C1
:1026A000390708F49C0152814381CF01E52FF42FB3
:1026B000309709F0B5CF8091CB0A9091CC0A8E1556
:1026C0009F05F1F426173707D8F480910002909106
:1026D0000102009741F48DB79EB72091040230911A
:1026E0000502821B930BA817B90708F06CCFB093B3
:1026F000CC0AA093CB0AFE013297718360830FC08E
:10270000CB010E9484117C01009709F45CCFA801E1
:10271000BE010E949D13CE010E941F12E701CE014F
:10272000DF91CF911F910F91FF90EF90DF90CF90AD
:10273000BF90AF909F908F900895FB01DC0102C085
:1027400001900D9241505040D8F70895FB01DC01F3
:1027500001900D920020E1F708950F931F93CF93FE
:10276000DF93EC018B01009731F46115710519F4C9
:10277000E0E0F0E037C06EE070E081E090E00E94C1
:10278000F813FC010097A1F380E88383011511057C
:1027900071F01387028781E883838091CF0A90913B
:1027A000D00A892B21F4F093D00AE093CF0A209726
:1027B000C9F0D187C0878381826083838091D10AE9
:1027C0009091D20A892B71F4F093D20AE093D10A46
:1027D0008091D30A9091D40A892B21F4F093D40AE2
:1027E000E093D30ACF01DF91CF911F910F9108950C
:1027F0000F931F93CF93DF93689F8001699F100D04
:10280000789F100D1124C8010E948411C82FD92F60
:10281000209731F0A80160E070E08C2F0E94161420
:10282000CE01DF91CF911F910F910895DC0101C07E
:102830006D9341505040E0F7089511E0CEEED1E0A5
:1028400000E006C022970109FE010BBF0E94801123
:0E285000C03FD10780E00807A9F7F894FFCF3A
:10285E000000D50A200074657374310074657374BA
:10286E0000435055425553205350490055313020A6
:10287E00534F4C454E4F49442F534F554E440055E0
:10288E003338205357495443480055343120414C76
:10289E004641444953504C41590055343220444925
:1028AE0053504C41592F57494447455400553531E3
:1028BE0020444953504C415900553534204C414D1C
:1028CE0050530055323820534F4C454E4F494453C8
:1028DE000000000000B308B408B508B608B708B881
:1028EE0008C708BC08BA0800000000B308B408B551
:1028FE0008B608B708B808C708BC08BA08232323C7
:10290E00435055425553205354415455532323237A
:10291E00000A53797374656D2074797065202020D8
:10292E003A20000A4E616D652020202020202020B4
:10293E0020203A20004370756275732064697265B9
:10294E0063740043707562757320737069000000C4
:10295E000000B002B102B508B608B708B808C7083B
:10296E00BC08BA08B3028B0FB202C8030000000005
:10297E00B002B102B508B608B708B808C708BC0857
:10298E00BA08B5021803B202C80300000000DD0544
:10299E0047060E0617063B0731067B06AB06FE05FD
:1029AE00EC051F06DB060606F50528060B07E607EF
:1029BE00CA079B077507D305D905DB057B45525220
:1029CE004F523A4F7574206F66206C6F6F70736C38
:1029DE006F74737D007B4552524F523A4F7574207F
:1029EE006F6620696E74657272757074736C6F7435
:1029FE00737D000A2323232050696E444120737493
:102A0E006174757320232323000A4D656D6F7279EF
:102A1E00204672656520202020202020203A2000AC
:102A2E000A50696E6461496E746572727570747362
:102A3E00202020203A20000A46756E6374696F6E5E
:102A4E00496E7465727275707473203A20000A5064
:102A5E00696E64614C6F6F70202020202020202032
:102A6E0020203A20000A46756E6374696F6E4C6FB3
:102A7E006F70202020202020203A20000A0A00001B
:102A8E00000000B308B408B508B608B708B808C700
:102A9E0008BC08BA0800000000BC0B8C0F570B8650
:062AAE000B6A0BAA0B00ED
:00000001FF
