:100000000C94F7000C9426010C9426010C94260104
:100010000C9426010C9426010C9426010C942601C4
:100020000C9426010C9426010C9426010C942601B4
:100030000C9426010C9426010C9426010C942601A4
:100040000C9426010C9426010C9426010C94260194
:100050000C9426010C9426010C9426010C94840324
:100060000C9426010C9410060C94E4060C942601C2
:100070000C9426010C9426010C9426010C94260164
:100080000C9426010C9426010C9426010C94260154
:100090000C943D060C9423070C9426010C94260125
:1000A0000C9426010C9426010C9426010C94260134
:1000B0000C9426010C9426010C9426010C945A03EE
:1000C0000C9426010C9426010C9426010C946A06CB
:1000D0000C9462070C9426010C9497060C94A107CB
:1000E0000C9426010000090A02080B0C0D070603F8
:1000F00004010000000000000000000000000000FB
:1001000000000000000000000000000000000000EF
:1001100011100F00000000000000000000000000AF
:100120000000000000000000000001021020200874
:100130000810204010204080020102010804020142
:1001400001020408102040808040201008040201B1
:10015000800402018040201008040201080402010A
:100160000102040810204080010204081020408091
:1001700005050505070508080808020202020A0A23
:100180000808040404040101010101010101030341
:10019000030303030303040707070C0C0C0C0C0CEC
:1001A0000C0C0202020206060606060606060B0BE9
:1001B0000B0B0B0B0B0B00002200250028002B0063
:1001C0002E003100340002010000050108010B017E
:1001D00000002100240027002A002D0030003300F9
:1001E00001010000040107010A01740162081124E1
:1001F0001FBECFEFD1E2DEBFCDBF12E0A0E0B2E084
:10020000E0E3F8E100E00BBF02C007900D92A432DA
:10021000B107D9F717E0A4E2B2E001C01D92AE37F2
:10022000B107E1F711E0CEEED1E000E006C0229781
:100230000109FE010BBF0E94690ACA3ED10780E096
:100240000807A9F70E9480090C94160C0C94000072
:10025000CF93C82F682F85E395E00E94C0058C2FAF
:1002600090E0CF91089560E070E088E291E00C9416
:10027000A60B40E052EC61E070E085E395E00E945F
:10028000E00785E395E00E9460088823D1F366E0EB
:1002900072E085E395E00E94E4090E94330161E089
:1002A0008CE292E00E94B50260E085E292E00E945A
:1002B000B50263E373E38CE292E00E94CD026FEF3C
:1002C0007FEF85E292E00C94CD02609124026F5F93
:1002D000609324028CE292E00E94C40268EC70E019
:1002E00080E090E00C94F80383E392E00E94D60251
:1002F00040E065E38CE292E00E94520241E065E357
:1003000085E292E00C9452028EBD0DB407FEFDCF43
:100310008EB50895EF92FF921F93CF93DF931F92B4
:10032000CDB7DEB77C01162F60E0FC0186814983E2
:100330000E942405F70185810E948401812F0E947B
:1003400084014981842F0E94840161E0F701868144
:100350000F90DF91CF911F91FF90EF900C942405A7
:100360001F93CF93DF93EC01162F60E08E810E94E4
:1003700024058C810E948401812F0E94840180E0E9
:100380000E948401182F61E08E810E942405812F34
:10039000DF91CF911F9108950F931F93CF93DF9318
:1003A000EC01162F60E08E810E9424058C810E9452
:1003B0008401812F0E94840180E00E948401182F13
:1003C00080E00E948401082F61E08E810E94240554
:1003D000302F20E0212BC901DF91CF911F910F9188
:1003E0000895EF92FF921F93CF93DF9300D0CDB784
:1003F000DEB77C01162F60E0FC01868149835A83B9
:100400000E942405F70185810E948401812F0E94AA
:1004100084014981842F0E9484015A81852F0E9482
:10042000840161E0F70186810F900F90DF91CF91F9
:100430001F91FF90EF900C9424051F93CF93DF93AF
:10044000EC01162F61E0812F0E94EC0461E0812F06
:100450000E9424051E83DF91CF911F9108950F9371
:100460001F93CF93DF93EC016B8370E0660F771FD0
:10047000CB0181648C8360646D83A881B9811496FB
:100480000D911C911597ED91FC916AE0CE010995B3
:10049000AC0140626AE0CE01F801DF91CF911F917B
:1004A0000F9109940F931F93CF93DF93EC01162FB5
:1004B000042F2CE032E0398328830E94F809612F51
:1004C000CE010E941D0284E00E94250A81E00E9464
:1004D000170A80E00E94200A80E00E94250A60E05E
:1004E000812F0E94240580E40E9484018AE00E94FA
:1004F000840188E00E94840161E0812F0E9424052C
:1005000060E0812F0E9424058EE40E9484018AE02D
:100510000E94840188E00E94840161E0812F0E9492
:10052000240567E0CE010E942F026AE0CE010E94FE
:10053000CC01AC0148606AE0CE010E94F10160E0AC
:10054000CE010E942F026AE0CE010E94CC01AC01D4
:1005500048606AE0CE010E94F101602FCE01DF9178
:10056000CF911F910F910C942F02611103C04FEF97
:100570005FEF02C040E050E0DC01ED91FC910480AF
:10058000F581E02D60E00994462FDC01ED91FC91AE
:100590000680F781E02D62E10994AB01DC01ED9169
:1005A000FC910480F581E02D62E10994CF93DF9303
:1005B000EC0181E090E00E948D099093CC0480933F
:1005C000CB04198218821A821B82DF91CF91089581
:1005D000EF92FF920F931F93CF93DF93EC018091E3
:1005E000CD049091CE0401969093CE048093CD04D7
:1005F0008A81811104C08B8181112FC054C07E017A
:1006000000E010E024C0D70114962D913C9115977D
:1006100021153105B9F0FE01E00FF11FE453FF4F42
:1006200060818091CD049091CE0470E00E94330AE5
:10063000892B41F4D901ED91FC910190F081E02DDD
:10064000C90109950F5F1F4FB2E0EB0EF11C8A81C3
:1006500090E008171907BCF2CECF7E0100E010E051
:100660001DC0F701E05DFE4F0190F081E02D309755
:1006700081F0DE01A00FB11FA059BE4F6C91809197
:10068000CD049091CE0470E00E94330A892B09F4C6
:1006900009950F5F1F4FE2E0EE0EF11C8B8190E099
:1006A00008171907F4F2DF91CF911F910F91FF9076
:1006B000EF9008951F920F920FB60F9211240BB670
:1006C0000F922F933F934F935F936F937F938F93EB
:1006D0009F93AF93BF93EF93FF9383E392E00E94C6
:1006E000E802FF91EF91BF91AF919F918F917F9120
:1006F0006F915F914F913F912F910F900BBE0F9093
:100700000FBE0F901F9018951F920F920FB60F9269
:1007100011242F933F938F939F93AF93BF93809117
:10072000CF049091D004A091D104B091D204309123
:10073000D704232F2D5F2D3720F40196A11DB11D65
:1007400005C0232F2A570296A11DB11D2093D7045F
:100750008093CF049093D004A093D104B093D2049B
:100760008091D3049091D404A091D504B091D60483
:100770000196A11DB11D8093D3049093D404A0933E
:10078000D504B093D604BF91AF919F918F913F91C3
:100790002F910F900FBE0F901F9018950F931F93DE
:1007A0009FB7F8940091D3041091D4042091D504FC
:1007B0003091D60486B5A89B06C08F3F21F00F5F0D
:1007C0001F4F2F4F3F4F9FBF322F212F102F00273A
:1007D000080F111D211D311D42E0000F111F221FA6
:1007E000331F4A95D1F7B801C9011F910F910895A0
:1007F000CF92DF92EF92FF92CF93DF936B017C0158
:100800000E94CE03EB010EC00E94CE036C1B7D0B39
:10081000683E734038F081E0C81AD108E108F10859
:10082000C851DC4FC114D104E104F10469F7DF9130
:10083000CF91FF90EF90DF90CF900895789484B59A
:10084000826084BD84B5816084BD85B5826085BDCC
:1008500085B5816085BDEEE6F0E0808181608083B2
:10086000E1E8F0E010828081826080838081816095
:100870008083E0E8F0E0808181608083E1EBF0E05C
:10088000808184608083E0EBF0E080818160808300
:10089000E1E9F0E0808182608083808181608083F3
:1008A000E0E9F0E0808181608083E1EAF0E080812E
:1008B00082608083808181608083E0EAF0E08081D3
:1008C00081608083E1E2F1E08081826080838081C9
:1008D00081608083E0E2F1E0808181608083EAE7EB
:1008E000F0E0808184608083808182608083808169
:1008F000816080838081806880831092C100089528
:10090000893009F443C088F4843029F138F4823006
:1009100059F1E8F4813009F05EC023C0873061F1FD
:1009200088F5863009F057C023C08D3009F440C0E7
:1009300020F48B30A9F1C0F52DC0803109F442C0FC
:10094000813109F443C08F3009F045C037C0809130
:1009500080008F7703C0809180008F7D809380001E
:10096000089584B58F7702C084B58F7D84BD0895C6
:100970008091B0008F7703C08091B0008F7D80930D
:10098000B0000895809190008F7707C0809190000B
:100990008F7D03C080919000877F809390000895A1
:1009A0008091A0008F7707C08091A0008F7D03C049
:1009B0008091A000877F8093A000089580912001FE
:1009C0008F7707C0809120018F7D03C08091200127
:1009D000877F809320010895CF93DF9390E0FC01FF
:1009E000E65DFE4F4491FC01E059FE4F849188235F
:1009F00041F190E0880F991FFC01E053FE4F2591D3
:100A00003491D9018A549E4FFC0185919491C82F4D
:100A1000D92F9FB7F8948C91611106C0409584231B
:100A20008C938881842308C0623041F4242F209560
:100A300082238C938881842B888302C0842B8C939F
:100A40009FBFDF91CF9108950F931F93CF93DF93B3
:100A50001F92CDB7DEB7282F30E0F901EC51FF4FE0
:100A60008491F901E65DFE4F1491F901E059FE4FC2
:100A700004910023D1F0882321F069830E9480042F
:100A80006981E02FF0E0EE0FFF1FEA54FE4F8591E1
:100A90009491DC019FB7F8948C91611103C010957B
:100AA000812301C0812B8C939FBF0F90DF91CF9149
:100AB0001F910F910895FC0184859585FC01E05CF0
:100AC000FF4F20813181FC01EE5BFF4F80819181DE
:100AD000281B390B2F733327C9010895FC01848526
:100AE0009585FC01E05CFF4F40815181FC01EE5B8C
:100AF000FF4F208131814217530741F00190F0816F
:100B0000E02DE80FF91F208130E002C02FEF3FEF0A
:100B1000C9010895FC0184859585FC01E05CFF4FC7
:100B200040815181FC01EE5BFF4F208131814217F2
:100B3000530781F0A081B181A80FB91F8C9120814A
:100B400031812F5F3F4F2F73332731832083282F2D
:100B500030E002C02FEF3FEFC9010895FC01868508
:100B60009785FC01E05CFF4FDC01AE5BBF4F40812D
:100B700051812D913C91119742175307C1F7089568
:100B8000CF93DF93FC0186859785DC01A05CBF4F86
:100B90002D913C9111972F5F3F4F2F733327EC011D
:100BA000CE5BDF4F4881598124173507D9F30D906B
:100BB000BC91A02DA80FB91F6C93A685B785A05C2A
:100BC000BF4F11963C932E93A689B7892C9181E053
:100BD00090E0058C02C0880F991F0A94E2F7282B39
:100BE0002C9381E090E0DF91CF910895FB01E05CD0
:100BF000FF4F208131812F5F3F4F2F733327DB0160
:100C0000AE5BBF4F4D915C912417350739F0A08141
:100C1000B181A60FB71F8C93318320830895089567
:100C20001F920F920FB60F9211240BB60F922F93B3
:100C30003F934F935F936F937F938F939F93AF9364
:100C4000BF93EF93FF938091C60060E377E00E942B
:100C5000F605FF91EF91BF91AF919F918F917F9199
:100C60006F915F914F913F912F910F900BBE0F901D
:100C70000FBE0F901F90189508951F920F920FB6F8
:100C80000F9211240BB60F922F933F934F935F93C4
:100C90006F937F938F939F93AF93BF93EF93FF9344
:100CA0008091CE0068EA76E00E94F605FF91EF9110
:100CB000BF91AF919F918F917F916F915F914F9174
:100CC0003F912F910F900BBE0F900FBE0F901F9072
:100CD000189508951F920F920FB60F9211240BB61C
:100CE0000F922F933F934F935F936F937F938F93C5
:100CF0009F93AF93BF93EF93FF938091D60060E2F1
:100D000076E00E94F605FF91EF91BF91AF919F9120
:100D10008F917F916F915F914F913F912F910F90A4
:100D20000BBE0F900FBE0F901F90189508951F9245
:100D30000F920FB60F9211240BB60F922F933F9381
:100D40004F935F936F937F938F939F93AF93BF93D3
:100D5000EF93FF938091360168E975E00E94F605F4
:100D6000FF91EF91BF91AF919F918F917F916F9183
:100D70005F914F913F912F910F900BBE0F900FBE3F
:100D80000F901F90189585E395E00E945B05892BD5
:100D900011F00E940F0686E195E00E945B05892B09
:100DA00011F00E943C0687EF94E00E945B05892BBE
:100DB00011F00E94690688ED94E00E945B05892B82
:100DC00011F00C94960608951F920F920FB60F9291
:100DD00011240BB60F922F933F938F939F93EF9312
:100DE000FF9320912C0730912D0780912E07909131
:100DF0002F072817390731F48091C1008F7D809328
:100E0000C10014C0E0912E07F0912F07E451F94F73
:100E1000208180912E0790912F0701968F7399273B
:100E200090932F0780932E072093C600FF91EF9198
:100E30009F918F913F912F910F900BBE0F900FBEFE
:100E40000F901F9018951F920F920FB60F921124BA
:100E50000BB60F922F933F938F939F93EF93FF9334
:100E60002091A4063091A5068091A6069091A70630
:100E70002817390731F48091C9008F7D8093C9000C
:100E800014C0E091A606F091A706EC59F94F208115
:100E90008091A6069091A70601968F73992790934B
:100EA000A7068093A6062093CE00FF91EF919F9115
:100EB0008F913F912F910F900BBE0F900FBE0F900F
:100EC0001F9018951F920F920FB60F9211240BB618
:100ED0000F922F933F938F939F93EF93FF932091C4
:100EE0001C0630911D0680911E0690911F06281742
:100EF000390731F48091D1008F7D8093D10014C0E7
:100F0000E0911E06F0911F06E452FA4F2081809175
:100F10001E0690911F0601968F73992790931F06C6
:100F200080931E062093D600FF91EF919F918F91A1
:100F30003F912F910F900BBE0F900FBE0F901F90FF
:100F400018951F920F920FB60F9211240BB60F92A5
:100F50002F933F938F939F93EF93FF93209194054B
:100F6000309195058091960590919705281739073E
:100F700031F4809131018F7D8093310114C0E09173
:100F80009605F0919705EC5AFA4F208180919605CD
:100F90009091970501968F73992790939705809369
:100FA000960520933601FF91EF919F918F913F918C
:100FB0002F910F900BBE0F900FBE0F901F901895A2
:100FC000CF92DF92EF92FF92CF93DF93EC016A0111
:100FD0007B01411581EE580761057105F9F0EC8937
:100FE000FD8981E090E00E8C02C0880F991F0A9461
:100FF000E2F7808360E079E08DE390E0A70196015D
:101000000E94470A215031094109510956954795D7
:1010100037952795211580E1380798F0EC89FD89EF
:10102000108260E874E88EE190E0A70196010E94CA
:10103000470A21503109410951095695479537957D
:101040002795E889F9893083EA89FB892083EE892D
:10105000FF89408181E090E09C010A8C02C0220F50
:10106000331F0A94E2F7422B4083EE89FF894081C7
:101070009C010B8C02C0220F331F0A94E2F7422B13
:101080004083EE89FF8940819C010C8C02C0220FB5
:10109000331F0A94E2F7422B4083EE89FF892081B7
:1010A0000D8C02C0880F991F0A94E2F78095822365
:1010B0008083DF91CF91FF90EF90DF90CF900895E4
:1010C00081E00895CF93109238051092370588EE8D
:1010D00093E0A0E0B0E08093390590933A05A093A7
:1010E0003B05B0933C0528E132E030933605209370
:1010F000350540E357E050934205409341054CEEDF
:1011000056E0509344054093430545EC50E050931E
:1011100046054093450544EC50E050934805409304
:10112000470540EC50E050934A054093490541EC97
:1011300050E050934C0540934B0546EC50E05093E3
:101140004E0540934D05C4E0C0934F05F3E0F09386
:101150005005E7E0E093510575E07093520561E0BA
:1011600060935305109219051092180580931A0583
:1011700090931B05A0931C05B0931D053093170594
:101180002093160548EA56E0509323054093220524
:1011900044E656E050932505409324054DEC50E07D
:1011A00050932705409326054CEC50E050932905B9
:1011B0004093280548EC50E050932B0540932A05B6
:1011C00049EC50E050932D0540932C054EEC50E037
:1011D00050932F0540932E05C0933005F0933105B1
:1011E000E093320570933305609334051092FA044E
:1011F0001092F9048093FB049093FC04A093FD04E7
:10120000B093FE043093F8042093F70440E256E0D4
:1012100050930405409303054CED55E050930605AB
:101220004093050545ED50E05093080540930705B0
:1012300044ED50E050930A054093090540ED50E01D
:1012400050930C0540930B0541ED50E050930E0573
:1012500040930D0546ED50E05093100540930F0567
:10126000C0931105F0931205E093130570931405D4
:10127000609315051092DB041092DA048093DC046D
:101280009093DD04A093DE04B093DF043093D9047F
:101290002093D80488E995E09093E5048093E404D2
:1012A00084E595E09093E7048093E60485E391E07C
:1012B0009093E9048093E80484E391E09093EB0435
:1012C0008093EA0480E391E09093ED048093EC0432
:1012D00081E391E09093EF048093EE0486E391E044
:1012E0009093F1048093F004C093F204F093F3041C
:1012F000E093F4047093F5046093F604CF9108959D
:101300000E941E040E943901C3ECD6E00E946501D0
:101310002097E1F30E94C306F9CF0C946D0ACF9297
:10132000DF92EF92FF920F931F93CF93DF936C01A5
:10133000EB017A01E60EF71E00E010E00BC06991A8
:10134000D601ED91FC910190F081E02DC601099547
:10135000080F191FCE15DF0591F7C801DF91CF9156
:101360001F910F91FF90EF90DF90CF900895DB01D8
:101370000D900020E9F7AD0141505109461B570B74
:10138000DC01ED91FC910280F381E02D0994DC01F8
:10139000ED91FC910190F081E02D09940F931F9342
:1013A000CF93DF93EC016DE00E94C7098C016AE0E6
:1013B000CE010E94C7099C01200F311FC901DF9196
:1013C000CF911F910F9108950F931F93CF93DF93A8
:1013D000EC010E94B7098C01CE010E94CE09980150
:1013E000280F391FC901DF91CF911F910F910895E7
:1013F00061E084E30E94EC0461E083E30E94EC047A
:1014000061E085E30E94EC0460E084E30E9424052F
:1014100060E083E30E94240561E085E30E942405E7
:101420008CB580618CBD8CB580648CBD08958111B4
:1014300003C08CB5806202C08CB58F7D8CBD0895D1
:101440009CB5937F982B9CBD08952CB5982F9370D5
:101450002C7F922B9CBD9DB582FB882780F99E7FB7
:10146000982B9DBD0895AA1BBB1B51E107C0AA1F65
:10147000BB1FA617B70710F0A61BB70B881F991F35
:101480005A95A9F780959095BC01CD010895A1E2E8
:101490001A2EAA1BBB1BFD010DC0AA1FBB1FEE1FEE
:1014A000FF1FA217B307E407F50720F0A21BB30B39
:1014B000E40BF50B661F771F881F991F1A9469F7B5
:1014C00060957095809590959B01AC01BD01CF0111
:1014D00008950790F691E02D09940F931F93CF93F1
:1014E000DF938230910510F482E090E0E09176077E
:1014F000F091770720E030E0C0E0D0E023C04081E9
:10150000518148175907A8F04817590761F482819B
:101510009381209719F09B838A832EC0909377073D
:101520008093760729C02115310529F0421753070A
:1015300010F0A90102C0BE01DF0102811381EF0199
:101540009A01F8013097D9F62115310509F1281BC8
:10155000390B2430310590F412968D919C9113979C
:101560006115710521F0FB019383828304C0909380
:10157000770780937607FD01329644C0FD01E20FA4
:10158000F31F81939193225031092D933C933AC0DC
:101590002091740730917507232B41F420910202AA
:1015A0003091030230937507209374072091000255
:1015B000309101022115310541F42DB73EB740911C
:1015C000040250910502241B350BE0917407F09141
:1015D0007507E217F307A0F42E1B3F0B28173907F6
:1015E00078F0AC014E5F5F4F2417350748F04E0F7F
:1015F0005F1F50937507409374078193919302C0C6
:10160000E0E0F0E0CF01DF91CF911F910F910895BD
:10161000EF92FF920F931F93CF93DF93009709F4FC
:101620008EC0DC01129713961C921E921297E090C6
:101630007607F0907707E114F10489F42D913C913D
:101640001197280F391F80917407909175078217A1
:10165000930789F5B0937507A093740770C0E701ED
:1016600020E030E001C0EA01CA17DB0738F44A8104
:101670005B819E0141155105B1F722C0AC0142507A
:101680005109FA01D383C28300811181BC01600F2B
:10169000711F6C177D0761F468817981600F711F7C
:1016A0006E5F7F4F718360836A817B817383628306
:1016B0002115310529F4B0937707A09376073FC031
:1016C000F901B383A283E90149915991C40FD51F50
:1016D000AC17BD0771F4DC019E918E91840F951FAC
:1016E00002969183808312968D919C911397938398
:1016F0008283A0E0B0E002C0D7017C01F7018281C3
:1017000093810097C9F7C701029620813181820F2A
:10171000931F20917407309175072817390779F4C2
:10172000109729F4109277071092760704C0139649
:101730001C921E921297F0927507E0927407DF9147
:10174000CF911F910F91FF90EF9008950F931F93EA
:10175000CF93DF93EC018B01009731F46115710594
:1017600019F4E0E0F0E037C06EE070E081E090E076
:101770000E94F10BFC010097A1F380E8838301151F
:10178000110571F01387028781E8838380917807C0
:1017900090917907892B21F4F0937907E0937807EA
:1017A0002097C9F0D187C08783818260838380912D
:1017B0007A0790917B07892B71F4F0937B07E09374
:1017C0007A0780917C0790917D07892B21F4F09313
:1017D0007D07E0937C07CF01DF91CF911F910F919F
:1017E00008950F931F93CF93DF93689F8001699FA4
:1017F000100D789F100D1124C8010E946D0AC82F8A
:10180000D92F209731F0A80160E070E08C2F0E9462
:101810000F0CCE01DF91CF911F910F910895DC0144
:1018200001C06D9341505040E0F70895F894FFCF08
:1018300000007E0720000A0000000000CC01B0017B
:10184000F1018A0100000000C0058F095B058A05CF
:041850006E05AE056E
:00000001FF
