:100000000C94F8000C9427010C9427010C94270100
:100010000C9427010C9427010C9427010C942701C0
:100020000C9427010C9427010C9427010C942701B0
:100030000C9427010C9427010C9427010C942701A0
:100040000C9427010C9427010C9427010C94270190
:100050000C9427010C9427010C9427010C94200484
:100060000C9427010C94AC060C9480070C94270187
:100070000C9427010C9427010C9427010C94270160
:100080000C9427010C9427010C9427010C94270150
:100090000C94D9060C94BF070C9427010C94860C81
:1000A0000C9427010C9427010C9427010C94270130
:1000B0000C9427010C9427010C9427010C94F6034F
:1000C0000C9427010C9427010C9427010C9406072B
:1000D0000C94FE070C9427010C9433070C943D08F4
:1000E0000C9427010000090A02080B0C0D070603F7
:1000F00004010000000000000000000000000000FB
:1001000000000000000000000000000000000000EF
:1001100011100F00000000000000000000000000AF
:100120000000000000000000000001021020200874
:100130000810204010204080020102010804020142
:1001400001020408102040808040201008040201B1
:10015000800402018040201008040201080402010A
:100160000102040810204080010204081020408091
:1001700005050505070508080808020202020A0A23
:100180000808040404040101010101010101030341
:10019000030303030303040707070C0C0C0C0C0CEC
:1001A0000C0C0202020206060606060606060B0BE9
:1001B0000B0B0B0B0B0B00002200250028002B0063
:1001C0002E003100340002010000050108010B017E
:1001D00000002100240027002A002D0030003300F9
:1001E00001010000040107010A017501FE08A30BCB
:1001F00011241FBECFEFD1E2DEBFCDBF12E0A0E0E1
:10020000B2E0EEE3FFE100E00BBF02C007900D9209
:10021000A034B107D9F718E0A0E4B2E001C01D9204
:10022000AD35B107E1F711E0C0EFD1E000E006C065
:1002300022970109FE010BBF0E94F00DCA3ED107B3
:1002400080E00807A9F70E941C0A0C949D0F0C94EB
:100250000000CF93C82F682F84E595E00E945C06CC
:100260008C2F90E0CF91089560E070E089E291E0FA
:100270000C942D0F40E052EC61E070E084E595E0D5
:100280000E947C0884E595E00E94FC088823D1F355
:1002900066E072E084E595E00E947E0A0E943401E7
:1002A00061E081E492E00E94400360E086E492E035
:1002B0000E94400363E373E381E492E00E945803E9
:1002C0006FEF7FEF86E492E00C9458036091400258
:1002D0006F5F6093400281E492E00E944F0368ECFC
:1002E00070E080E090E00C94940484E592E00E9439
:1002F0007E0340E065E38DE492E00E94DD0241E090
:1003000065E386E492E00E94DD0260E081E492E031
:100310000C9461031F93CF93DF931F92CDB7DEB789
:10032000162FFC01648183E997E049830E94830BC7
:10033000612F83E997E00E94290B4981642F83E9AB
:1003400097E00E94290B83E997E00F90DF91CF910E
:100350001F910C94A00B1F93CF93DF9300D0CDB7C8
:10036000DEB7162FFC01648183E997E049835A8345
:100370000E94830B612F83E997E00E94290B49813A
:10038000642F83E997E00E94290B5A81652F83E946
:1003900097E00E94290B83E997E00F900F90DF917F
:1003A000CF911F910C94A00B1F93CF93DF93EC017F
:1003B000162F6C8183E997E00E94830B612F83E9FC
:1003C00097E00E94290B83E997E00E94A00B41E08F
:1003D0006C8183E997E00E94800B83E997E00E949B
:1003E000D60ADF91CF911F9108951F93CF93DF938A
:1003F000EC01162F6C8183E997E00E94830B612F3B
:1004000083E997E00E94290B83E997E00E94A00B03
:1004100042E06C8183E997E00E94800B83E997E0DA
:100420000E94D60AEC0183E997E00E94D60A382F91
:1004300020E02C2B3D2BC901DF91CF911F91089516
:100440008EBD0DB407FEFDCF8EB50895CF93DF931B
:1004500000D0CDB7DEB72898FC0185814A83698337
:100460000E9420026981862F0E9420024A81842FE7
:100470000E942002289A0F900F90DF91CF9108954B
:10048000CF93DF931F92CDB7DEB72898FC0184810C
:1004900069830E9420026981862F0E94200280E0E9
:1004A0000E942002289A0F90DF91CF9108950F9318
:1004B0001F93CF93DF93EC01162F60E08E810E9493
:1004C000C0058C810E942002812F0E94200280E0C2
:1004D0000E942002182F80E00E942002082F61E075
:1004E0008E810E94C005302F20E0212BC901DF91B1
:1004F000CF911F910F910895EF92FF921F93CF9389
:10050000DF9300D0CDB7DEB77C01162F60E0FC0191
:10051000868149835A830E94C005F70185810E9424
:100520002002812F0E9420024981842F0E942002F4
:100530005A81852F0E94200261E0F70186810F9089
:100540000F90DF91CF911F91FF90EF900C94C00519
:100550001F93CF93DF93EC01162F61E0812F0E9450
:10056000880561E0812F0E94C0051E83DF91CF9135
:100570001F9108950F931F93CF93DF93EC016B832B
:1005800070E0660F771FCB0181648C8360646D839C
:10059000A881B98114960D911C911597ED91FC914C
:1005A0006AE0CE010995AC0140626AE0CE01F80133
:1005B000DF91CF911F910F9109940F931F93CF93C8
:1005C000DF93EC01162F042F2CE032E039832883CF
:1005D0000E94920A612FCE010E94A80284E00E942C
:1005E000BF0A81E00E94B10A80E00E94BA0A80E05E
:1005F0000E94BF0A60E0812F0E94C00580E40E9433
:1006000020028AE00E94200288E00E94200261E02D
:10061000812F0E94C00560E0812F0E94C0058EE4FA
:100620000E9420028AE00E94200288E00E942002AC
:1006300061E0812F0E94C00567E0CE010E94BA02EE
:100640006AE0CE010E945702AC0148606AE0CE0128
:100650000E947C0260E0CE010E94BA026AE0CE01F4
:100660000E945702AC0148606AE0CE010E947C0201
:10067000602FCE01DF91CF911F910F910C94BA02A0
:10068000611103C04FEF5FEF02C040E050E0DC01BA
:10069000ED91FC910480F581E02D60E00994462FF6
:1006A000DC01ED91FC910680F781E02D62E1099477
:1006B000AB01DC01ED91FC910480F581E02D62E15C
:1006C00009940F931F93CF93DF931F92CDB7DEB79B
:1006D0008C0188E192E0F8019183808383E997E0BF
:1006E00069830E94690B6981F80163836062648396
:1006F0000F90DF91CF911F910F910895FC0111820E
:100700001082128213820895EF92FF920F931F932B
:10071000CF93DF93EC018091EC049091ED0401966E
:100720009093ED048093EC048A81811104C08B8145
:1007300081112FC054C07E0100E010E024C0D70119
:1007400014962D913C91159721153105B9F0FE01B4
:10075000E00FF11FE453FF4F60818091EC04909112
:10076000ED0470E00E94BA0D892B41F4D901ED919E
:10077000FC910190F081E02DC90109950F5F1F4F99
:10078000B2E0EB0EF11C8A8190E008171907BCF269
:10079000CECF7E0100E010E01DC0F701E05DFE4F0E
:1007A0000190F081E02D309781F0DE01A00FB11FA4
:1007B000A059BE4F6C918091EC049091ED0470E0D3
:1007C0000E94BA0D892B09F409950F5F1F4FE2E0D3
:1007D000EE0EF11C8B8190E008171907F4F2DF91FF
:1007E000CF911F910F91FF90EF9008951F920F925C
:1007F0000FB60F9211240BB60F922F933F934F9386
:100800005F936F937F938F939F93AF93BF93EF9378
:10081000FF9384E592E00E948403FF91EF91BF91E2
:10082000AF919F918F917F916F915F914F913F9188
:100830002F910F900BBE0F900FBE0F901F90189529
:100840001F920F920FB60F9211242F933F938F9305
:100850009F93AF93BF938091EE049091EF04A0918A
:10086000F004B091F1043091F604232F2D5F2D3761
:1008700020F40196A11DB11D05C0232F2A57029611
:10088000A11DB11D2093F6048093EE049093EF0414
:10089000A093F004B093F1048091F2049091F304DA
:1008A000A091F404B091F5040196A11DB11D8093AF
:1008B000F2049093F304A093F404B093F504BF9171
:1008C000AF919F918F913F912F910F900FBE0F90FD
:1008D0001F9018950F931F939FB7F8940091F204FF
:1008E0001091F3042091F4043091F50486B5A89B8F
:1008F00006C08F3F21F00F5F1F4F2F4F3F4F9FBF0D
:10090000322F212F102F0027080F111D211D311DFF
:1009100042E0000F111F221F331F4A95D1F7B80183
:10092000C9011F910F910895CF92DF92EF92FF922C
:10093000CF93DF936B017C010E946A04EB010EC030
:100940000E946A046C1B7D0B683E734038F081E0A6
:10095000C81AD108E108F108C851DC4FC114D1040C
:10096000E104F10469F7DF91CF91FF90EF90DF9000
:10097000CF900895789484B5826084BD84B58160F9
:1009800084BD85B5826085BD85B5816085BDEEE697
:10099000F0E0808181608083E1E8F0E01082808176
:1009A00082608083808181608083E0E8F0E08081E4
:1009B00081608083E1EBF0E0808184608083E0EB04
:1009C000F0E0808181608083E1E9F0E080818260F5
:1009D0008083808181608083E0E9F0E080818160B4
:1009E0008083E1EAF0E080818260808380818160A1
:1009F0008083E0EAF0E0808181608083E1E2F1E0E1
:100A0000808182608083808181608083E0E2F1E088
:100A1000808181608083EAE7F0E080818460808368
:100A20008081826080838081816080838081806812
:100A300080831092C1000895893009F443C088F47E
:100A4000843029F138F4823059F1E8F4813009F02A
:100A50005EC023C0873061F188F5863009F057C049
:100A600023C08D3009F440C020F48B30A9F1C0F5CB
:100A70002DC0803109F442C0813109F443C08F3068
:100A800009F045C037C0809180008F7703C0809106
:100A900080008F7D80938000089584B58F7702C099
:100AA00084B58F7D84BD08958091B0008F7703C099
:100AB0008091B0008F7D8093B00008958091900068
:100AC0008F7707C0809190008F7D03C08091900048
:100AD000877F8093900008958091A0008F7707C052
:100AE0008091A0008F7D03C08091A000877F8093BC
:100AF000A0000895809120018F7707C08091200188
:100B00008F7D03C080912001877F8093200108950D
:100B1000CF93DF9390E0FC01E65DFE4F4491FC0132
:100B2000E059FE4F8491882341F190E0880F991F8E
:100B3000FC01E053FE4F25913491D9018A549E4F18
:100B4000FC0185919491C82FD92F9FB7F8948C916F
:100B5000611106C0409584238C938881842308C04A
:100B6000623041F4242F209582238C938881842B3A
:100B7000888302C0842B8C939FBFDF91CF9108950F
:100B80000F931F93CF93DF931F92CDB7DEB7282F1C
:100B900030E0F901EC51FF4F8491F901E65DFE4F21
:100BA0001491F901E059FE4F04910023D1F08823FC
:100BB00021F069830E941C056981E02FF0E0EE0FAF
:100BC000FF1FEA54FE4F85919491DC019FB7F89482
:100BD0008C91611103C01095812301C0812B8C93EE
:100BE0009FBF0F90DF91CF911F910F910895FC014E
:100BF00084859585FC01E05CFF4F20813181FC01FB
:100C0000EE5BFF4F80819181281B390B2F733327B7
:100C1000C9010895FC0184859585FC01E05CFF4FC6
:100C200040815181FC01EE5BFF4F208131814217F1
:100C3000530741F00190F081E02DE80FF91F20816A
:100C400030E002C02FEF3FEFC9010895FC01848519
:100C50009585FC01E05CFF4F40815181FC01EE5B1A
:100C6000FF4F208131814217530781F0A081B1816C
:100C7000A80FB91F8C91208131812F5F3F4F2F73B7
:100C8000332731832083282F30E002C02FEF3FEF3E
:100C9000C9010895FC0186859785FC01E05CFF4F42
:100CA000DC01AE5BBF4F408151812D913C9111978A
:100CB00042175307C1F70895CF93DF93FC01868550
:100CC0009785DC01A05CBF4F2D913C9111972F5F60
:100CD0003F4F2F733327EC01CE5BDF4F48815981A3
:100CE00024173507D9F30D90BC91A02DA80FB91F7B
:100CF0006C93A685B785A05CBF4F11963C932E934D
:100D0000A689B7892C9181E090E0058C02C0880FFC
:100D1000991F0A94E2F7282B2C9381E090E0DF9151
:100D2000CF910895FB01E05CFF4F208131812F5F5F
:100D30003F4F2F733327DB01AE5BBF4F4D915C916B
:100D40002417350739F0A081B181A60FB71F8C9306
:100D500031832083089508951F920F920FB60F924A
:100D600011240BB60F922F933F934F935F936F9382
:100D70007F938F939F93AF93BF93EF93FF93809154
:100D8000C6006FE477E00E949206FF91EF91BF9159
:100D9000AF919F918F917F916F915F914F913F9113
:100DA0002F910F900BBE0F900FBE0F901F901895B4
:100DB00008951F920F920FB60F9211240BB60F9247
:100DC0002F933F934F935F936F937F938F939F9353
:100DD000AF93BF93EF93FF938091CE0067EC76E0E3
:100DE0000E949206FF91EF91BF91AF919F918F91D9
:100DF0007F916F915F914F913F912F910F900BBE1B
:100E00000F900FBE0F901F90189508951F920F928C
:100E10000FB60F9211240BB60F922F933F934F935F
:100E20005F936F937F938F939F93AF93BF93EF9352
:100E3000FF938091D6006FE376E00E949206FF91C7
:100E4000EF91BF91AF919F918F917F916F915F9142
:100E50004F913F912F910F900BBE0F900FBE0F90AF
:100E60001F90189508951F920F920FB60F9211249C
:100E70000BB60F922F933F934F935F936F937F9394
:100E80008F939F93AF93BF93EF93FF93809136011E
:100E900067EB75E00E949206FF91EF91BF91AF91D1
:100EA0009F918F917F916F915F914F913F912F9182
:100EB0000F900BBE0F900FBE0F901F90189584E5FA
:100EC00095E00E94F705892B11F00E94AB0685E39F
:100ED00095E00E94F705892B11F00E94D80686E163
:100EE00095E00E94F705892B11F00E94050787EF16
:100EF00094E00E94F705892B11F00C9432070895B5
:100F00001F920F920FB60F9211240BB60F922F93D0
:100F10003F938F939F93EF93FF9320914B073091D3
:100F20004C0780914D0790914E072817390731F4EF
:100F30008091C1008F7D8093C10014C0E0914D0766
:100F4000F0914E07E55FF84F208180914D07909119
:100F50004E0701968F73992790934E0780934D0704
:100F60002093C600FF91EF919F918F913F912F9118
:100F70000F900BBE0F900FBE0F901F9018951F92F1
:100F80000F920FB60F9211240BB60F922F933F932F
:100F90008F939F93EF93FF932091C3063091C406E4
:100FA0008091C5069091C6062817390731F48091C3
:100FB000C9008F7D8093C90014C0E091C506F091EF
:100FC000C606ED57F94F20818091C5069091C6065F
:100FD00001968F7399279093C6068093C506209338
:100FE000CE00FF91EF919F918F913F912F910F90A4
:100FF0000BBE0F900FBE0F901F9018951F920F926F
:101000000FB60F9211240BB60F922F933F938F932D
:101010009F93EF93FF9320913B0630913C06809184
:101020003D0690913E062817390731F48091D10092
:101030008F7D8093D10014C0E0913D06F0913E0673
:10104000E550FA4F208180913D0690913E06019631
:101050008F73992790933E0680933D062093D60088
:10106000FF91EF919F918F913F912F910F900BBE28
:101070000F900FBE0F901F9018951F920F920FB6F2
:101080000F9211240BB60F922F933F938F939F9340
:10109000EF93FF932091B3053091B4058091B5058E
:1010A0009091B6052817390731F4809131018F7D71
:1010B0008093310114C0E091B505F091B605ED586B
:1010C000FA4F20818091B5059091B60501968F73F6
:1010D00099279093B6058093B50520933601FF912B
:1010E000EF919F918F913F912F910F900BBE0F9099
:1010F0000FBE0F901F901895CF92DF92EF92FF9244
:10110000CF93DF93EC016A017B01411581EE580713
:1011100061057105F9F0EC89FD8981E090E00E8CA4
:1011200002C0880F991F0A94E2F7808360E079E09B
:101130008DE390E0A70196010E94CE0D2150310968
:10114000410951095695479537952795211580E115
:10115000380798F0EC89FD89108260E874E88EE128
:1011600090E0A70196010E94CE0D2150310941095E
:1011700051095695479537952795E889F989308320
:10118000EA89FB892083EE89FF89408181E090E034
:101190009C010A8C02C0220F331F0A94E2F7422BF3
:1011A0004083EE89FF8940819C010B8C02C0220F95
:1011B000331F0A94E2F7422B4083EE89FF89408176
:1011C0009C010C8C02C0220F331F0A94E2F7422BC1
:1011D0004083EE89FF8920810D8C02C0880F991F02
:1011E0000A94E2F7809582238083DF91CF91FF906C
:1011F000EF90DF90CF90089581E00895CF93109203
:1012000057051092560588EE93E0A0E0B0E0809379
:10121000580590935905A0935A05B0935B0524E2B5
:1012200032E030935505209354054FE457E0509336
:101230006105409360054BE057E050936305409390
:10124000620545EC50E0509365054093640544EC1D
:1012500050E0509367054093660540EC50E0509392
:1012600069054093680541EC50E050936B0540934D
:101270006A0546EC50E050936D0540936C05C4E060
:10128000C0936E05F3E0F0936F05E7E0E09370051F
:1012900075E07093710561E06093720510923805F6
:1012A000109237058093390590933A05A0933B053A
:1012B000B0933C05309336052093350547EC56E056
:1012C000509342054093410543E856E0509344054E
:1012D000409343054DEC50E050934605409345053F
:1012E0004CEC50E0509348054093470548EC50E0E3
:1012F00050934A054093490549EC50E050934C0502
:1013000040934B054EEC50E050934E0540934D05F5
:10131000C0934F05F0935005E0935105709352052B
:1013200060935305109219051092180580931A05C1
:1013300090931B05A0931C05B0931D0530931705D2
:10134000209316054FE356E0509323054093220562
:101350004BEF55E0509325054093240545ED50E0B3
:10136000509327054093260544ED50E050932905FE
:101370004093280540ED50E050932B0540932A05FB
:1013800041ED50E050932D0540932C0546ED50E083
:1013900050932F0540932E05C0933005F0933105EF
:1013A000E093320570933305609334051092FA048C
:1013B0001092F9048093FB049093FC04A093FD0425
:1013C000B093FE043093F8042093F70487EB95E084
:1013D000909304058093030583E795E090930605B9
:1013E0008093050585E391E09093080580930705B8
:1013F00084E391E090930A058093090580E391E0EE
:1014000090930C0580930B0581E391E090930E057A
:1014100080930D0586E391E09093100580930F056E
:10142000C0931105F0931205E09313057093140512
:1014300060931505CF9108950E94BA040E943A0165
:10144000CFE5D7E00E9466012097E1F30E945F0795
:10145000F9CFCF92DF92EF92FF920F931F93CF932A
:10146000DF936C01EB017A01E60EF71E00E010E05D
:101470000BC06991D601ED91FC910190F081E02DB6
:10148000C6010995080F191FCE15DF0591F7C80190
:10149000DF91CF911F910F91FF90EF90DF90CF9050
:1014A0000895DB010D900020E9F7AD01415051098D
:1014B000461B570BDC01ED91FC910280F381E02D7E
:1014C0000994DC01ED91FC910190F081E02D0994EB
:1014D0000F931F93CF93DF93EC016DE00E94610A9D
:1014E0008C016AE0CE010E94610A9C01200F311F2D
:1014F000C901DF91CF911F910F9108950F931F9311
:10150000CF93DF93EC010E94510A8C01CE010E941F
:10151000680A9801280F391FC901DF91CF911F91E7
:101520000F91089561E084E30E94880561E083E300
:101530000E94880561E085E30E94880560E084E3FD
:101540000E94C00560E083E30E94C00561E085E37E
:101550000E94C0058CB580618CBD8CB580648CBD4B
:101560000895811103C08CB5806202C08CB58F7D57
:101570008CBD08959CB5937F982B9CBD08952CB588
:10158000982F93702C7F922B9CBD9DB582FB882752
:1015900080F99E7F982B9DBD08952091C30730E070
:1015A0008091C407281B3109C90108958091C4079F
:1015B0009091C307891750F4E82FF0E0EB53F84FF0
:1015C000208130E08F5F8093C40702C02FEF3FEF90
:1015D000C9010895E091C4078091C307E81730F46A
:1015E000F0E0EB53F84F208130E002C02FEF3FEFE7
:1015F000C90108950895CF92DF92EF92FF920F9361
:101600001F93CF93DF937C01CB018A0120919F0729
:10161000222391F0EB016B01C40ED51E09C0699124
:10162000D701ED91FC910190F081E02DC701099562
:10163000CC15DD05A1F703C0642F0E945D0CC80125
:10164000DF91CF911F910F91FF90EF90DF90CF909E
:101650000895CF93DF931F92CDB7DEB769832091B2
:101660009F072223D1F02091A007203240F021E0F3
:1016700030E0FC013383228320E030E015C080910C
:10168000A107E82FF0E0EE55F84F998190838F5F26
:101690008093A1078093A00705C061E0CE01019669
:1016A0000E945D0C21E030E0C9010F90DF91CF91E5
:1016B0000895FC011382128248EE53E060E070E06E
:1016C000448355836683778384E392E091838083A8
:1016D00008951092C4071092C3071092A1071092A8
:1016E000A0070C94A70B862F413208F040E265EC6E
:1016F00077E00E94C50B1092C4078093C30708953A
:1017000021E00C94730B81E080939F076093C207E4
:101710001092A1071092A00708950F93062F21E0C1
:101720004091A00762EA77E08091C2070E940A0C0C
:101730001092A1071092A00710929F070F91089591
:1017400061E00C948D0B83E997E00C94590B109297
:10175000EE0781E08093EC071092EB0761E084E1F3
:101760000E94C00561E085E10E94C005E9EBF0E060
:1017700080818E7F808380818D7F808388E48093C9
:10178000B80085E48093BC000895413208F03FC062
:101790009091EE079111FCCF91E09093EE0720938A
:1017A000EC072FEF2093E5071092EA07242F215032
:1017B0002093E9079093ED079091ED07880F892B0F
:1017C0008093ED078091EB07813041F41092EB0795
:1017D0008091ED078093BB0085EC01C085EE80937E
:1017E000BC008091EE078130E1F38091EA07841715
:1017F00010F44091EA072FEE37E0FB01D90102C057
:101800008D9181938A2F821B8417D0F301C040E011
:10181000842F08950F93413208F046C09091EE074F
:101820009111FCCF92E09093EE070093EC079FEFAD
:101830009093E5071092EA074093E907FB016FEEEA
:1018400077E0DB0102C091919D939A2F961B94172C
:10185000D0F31092ED079091ED07880F892B8093BC
:10186000ED078091EB07813041F41092EB078091F6
:10187000ED078093BB0085EC01C085EE8093BC0032
:10188000222321F08091EE078230E1F38091E50779
:101890008F3F61F08091E507803251F08091E5073C
:1018A000803341F483E007C081E005C080E003C0DD
:1018B00082E001C084E00F910895613298F4209194
:1018C000EE07243089F46093E707FC018FE098E08D
:1018D000DC0102C021912D932A2F281B2617D0F35B
:1018E00080E0089581E0089582E0089585ED809379
:1018F000BC008091BC0084FDFCCF1092EE070895DF
:1019000085EC8093BC001092EE0708951F920F9211
:101910000FB60F9211240BB60F922F933F934F9354
:101920005F936F937F938F939F93AF93BF93EF9347
:10193000FF938091B900887F803609F49FC058F5E5
:10194000883209F45BC090F4803109F452C038F455
:10195000882309F4F8C0883009F0F9C04AC08831FA
:1019600009F44CC0803209F0F2C05CC0803409F444
:101970006BC038F4803309F455C0883309F0E7C0F0
:1019800054C0803509F454C0883509F462C08834E5
:1019900009F0DDC0DAC0883909F4CBC0A8F4883773
:1019A00009F46CC038F4883609F468C0803709F04F
:1019B000CEC064C0883809F4BCC0803909F464C062
:1019C000803809F0C4C060C0803B09F48AC038F494
:1019D000803A09F46BC0883A09F0B9C082C0803CF3
:1019E00009F4ABC0883C09F4A8C0883B09F0AFC03B
:1019F0008DC08091ED078093BB0012C09091EA07E3
:101A00008091E907981788F58091EA07E82FF0E0C0
:101A1000E151F84F90819093BB008F5F8093EA076C
:101A200085EC88C08093E50790C08093E50756C099
:101A30008091EA079091BB00E82FF0E0E151F84F68
:101A400090838F5F8093EA079091EA078091E9077E
:101A50006DC08091EA079091BB00E82FF0E0E15162
:101A6000F84F90838F5F8093EA078091EC07811194
:101A70006CC081E08093EB0784EA60C083E08093D0
:101A8000EE071092E607CCCF8091E607803208F08F
:101A900050C08091E6079091BB00E82FF0E0ED5C2C
:101AA000F74F90838F5F8093E607BACF8091E60768
:101AB000803230F4E091E607F0E0ED5CF74F108201
:101AC0000E94760C6091E607E0912F08F0913008B3
:101AD00070E083E398E009951092E6070E94800C7D
:101AE00036C084E08093EE071092E8071092E70773
:101AF000E0913108F091320809958091E707811152
:101B000005C081E08093E70710920F088091E807F5
:101B1000E82FF0E0E15FF74F90819093BB008F5F7B
:101B20008093E8079091E8078091E707981708F4F9
:101B300077CF85E88093BC000AC085EC8093BC0019
:101B40001092EE0704C01092E5070E94760CFF91F8
:101B5000EF91BF91AF919F918F917F916F915F9125
:101B60004F913F912F910F900BBE0F900FBE0F9092
:101B70001F901895AA1BBB1B51E107C0AA1FBB1FD2
:101B8000A617B70710F0A61BB70B881F991F5A9509
:101B9000A9F780959095BC01CD010895A1E21A2E78
:101BA000AA1BBB1BFD010DC0AA1FBB1FEE1FFF1F01
:101BB000A217B307E407F50720F0A21BB30BE40B51
:101BC000F50B661F771F881F991F1A9469F7609598
:101BD0007095809590959B01AC01BD01CF01089552
:101BE0000790F691E02D09940F931F93CF93DF9305
:101BF0008230910510F482E090E0E0915508F09178
:101C0000560820E030E0C0E0D0E023C040815181A0
:101C100048175907A8F04817590761F48281938142
:101C2000209719F09B838A832EC090935608809347
:101C3000550829C02115310529F04217530710F026
:101C4000A90102C0BE01DF0102811381EF019A01E7
:101C5000F8013097D9F62115310509F1281B390B08
:101C60002430310590F412968D919C911397611553
:101C7000710521F0FB019383828304C09093560881
:101C800080935508FD01329644C0FD01E20FF31F19
:101C900081939193225031092D933C933AC0209126
:101CA000530830915408232B41F4209102023091C3
:101CB000030230935408209353082091000230917E
:101CC00001022115310541F42DB73EB740910402C0
:101CD00050910502241B350BE0915308F0915408F4
:101CE000E217F307A0F42E1B3F0B2817390778F0F3
:101CF000AC014E5F5F4F2417350748F04E0F5F1F52
:101D000050935408409353088193919302C0E0E0AC
:101D1000F0E0CF01DF91CF911F910F910895EF92E5
:101D2000FF920F931F93CF93DF93009709F48EC018
:101D3000DC01129713961C921E921297E0905508A0
:101D4000F0905608E114F10489F42D913C9111971B
:101D5000280F391F809153089091540882179307D8
:101D600089F5B0935408A093530870C0E70120E0B0
:101D700030E001C0EA01CA17DB0738F44A815B8111
:101D80009E0141155105B1F722C0AC0142505109E5
:101D9000FA01D383C28300811181BC01600F711FDE
:101DA0006C177D0761F468817981600F711F6E5F28
:101DB0007F4F718360836A817B8173836283211586
:101DC000310529F4B0935608A09355083FC0F90196
:101DD000B383A283E90149915991C40FD51FAC1770
:101DE000BD0771F4DC019E918E91840F951F0296C0
:101DF0009183808312968D919C9113979383828314
:101E0000A0E0B0E002C0D7017C01F701828193819C
:101E10000097C9F7C701029620813181820F931F75
:101E200020915308309154082817390779F41097F6
:101E300029F4109256081092550804C013961C926B
:101E40001E921297F0925408E0925308DF91CF91BE
:101E50001F910F91FF90EF9008950F931F93CF93D1
:101E6000DF93EC018B01009731F46115710519F4D2
:101E7000E0E0F0E037C06EE070E081E090E00E94CA
:101E8000780FFC010097A1F380E883830115110509
:101E900071F01387028781E88383809157089091BE
:101EA0005808892B21F4F0935808E093570820979D
:101EB000C9F0D187C087838182608383809159086C
:101EC00090915A08892B71F4F0935A08E0935908BD
:101ED00080915B0890915C08892B21F4F0935C0859
:101EE000E0935B08CF01DF91CF911F910F9108958F
:101EF0000F931F93CF93DF93689F8001699F100D0D
:101F0000789F100D1124C8010E94F40DC82FD92FFD
:101F1000209731F0A80160E070E08C2F0E94960FAE
:101F2000CE01DF91CF911F910F910895DC0101C087
:0E1F30006D9341505040E0F70895F894FFCFB4
:101F3E0000005D0820000A00000000005702400269
:101F4E007C02260200000000F501D401AB018A01DB
:101F5E00000000005C06290AF70526060A064A0656
:101F6E0000000000290BFB0ACD0AD60AEA0AFA0A7B
:00000001FF
